{
  "abi": [
    {
      "type": "constructor",
      "inputs": [
        {
          "name": "initialOwner",
          "type": "address",
          "internalType": "address"
        }
      ],
      "stateMutability": "nonpayable"
    },
    {
      "type": "receive",
      "stateMutability": "payable"
    },
    {
      "type": "function",
      "name": "acceptMigration",
      "inputs": [
        {
          "name": "oldAddress",
          "type": "address",
          "internalType": "address"
        }
      ],
      "outputs": [],
      "stateMutability": "nonpayable"
    },
    {
      "type": "function",
      "name": "acceptTerms",
      "inputs": [],
      "outputs": [],
      "stateMutability": "nonpayable"
    },
    {
      "type": "function",
      "name": "addWorker",
      "inputs": [
        {
          "name": "workerAddr",
          "type": "address",
          "internalType": "address"
        },
        {
          "name": "timeline",
          "type": "uint8",
          "internalType": "enum StreamWagePayroll.Timeline"
        },
        {
          "name": "amountPerIntervalWei",
          "type": "uint256",
          "internalType": "uint256"
        },
        {
          "name": "customIntervalSeconds",
          "type": "uint256",
          "internalType": "uint256"
        },
        {
          "name": "metadata",
          "type": "string",
          "internalType": "string"
        }
      ],
      "outputs": [],
      "stateMutability": "nonpayable"
    },
    {
      "type": "function",
      "name": "admins",
      "inputs": [
        {
          "name": "",
          "type": "address",
          "internalType": "address"
        }
      ],
      "outputs": [
        {
          "name": "",
          "type": "bool",
          "internalType": "bool"
        }
      ],
      "stateMutability": "view"
    },
    {
      "type": "function",
      "name": "cancelMigration",
      "inputs": [],
      "outputs": [],
      "stateMutability": "nonpayable"
    },
    {
      "type": "function",
      "name": "cancelProposal",
      "inputs": [
        {
          "name": "workerAddr",
          "type": "address",
          "internalType": "address"
        }
      ],
      "outputs": [],
      "stateMutability": "nonpayable"
    },
    {
      "type": "function",
      "name": "claim",
      "inputs": [],
      "outputs": [
        {
          "name": "claimedAmount",
          "type": "uint256",
          "internalType": "uint256"
        }
      ],
      "stateMutability": "nonpayable"
    },
    {
      "type": "function",
      "name": "claimTo",
      "inputs": [
        {
          "name": "recipient",
          "type": "address",
          "internalType": "address"
        }
      ],
      "outputs": [
        {
          "name": "claimedAmount",
          "type": "uint256",
          "internalType": "uint256"
        }
      ],
      "stateMutability": "nonpayable"
    },
    {
      "type": "function",
      "name": "claimable",
      "inputs": [
        {
          "name": "workerAddr",
          "type": "address",
          "internalType": "address"
        }
      ],
      "outputs": [
        {
          "name": "",
          "type": "uint256",
          "internalType": "uint256"
        }
      ],
      "stateMutability": "view"
    },
    {
      "type": "function",
      "name": "defaultProposalWindow",
      "inputs": [],
      "outputs": [
        {
          "name": "",
          "type": "uint256",
          "internalType": "uint256"
        }
      ],
      "stateMutability": "view"
    },
    {
      "type": "function",
      "name": "expireProposal",
      "inputs": [
        {
          "name": "workerAddr",
          "type": "address",
          "internalType": "address"
        }
      ],
      "outputs": [],
      "stateMutability": "nonpayable"
    },
    {
      "type": "function",
      "name": "fundTreasury",
      "inputs": [],
      "outputs": [],
      "stateMutability": "payable"
    },
    {
      "type": "function",
      "name": "grantTriggerPayment",
      "inputs": [
        {
          "name": "workerAddr",
          "type": "address",
          "internalType": "address"
        },
        {
          "name": "amountWei",
          "type": "uint256",
          "internalType": "uint256"
        }
      ],
      "outputs": [],
      "stateMutability": "nonpayable"
    },
    {
      "type": "function",
      "name": "lowTreasuryThresholdSeconds",
      "inputs": [],
      "outputs": [
        {
          "name": "",
          "type": "uint256",
          "internalType": "uint256"
        }
      ],
      "stateMutability": "view"
    },
    {
      "type": "function",
      "name": "owner",
      "inputs": [],
      "outputs": [
        {
          "name": "",
          "type": "address",
          "internalType": "address"
        }
      ],
      "stateMutability": "view"
    },
    {
      "type": "function",
      "name": "emergencyPaused",
      "inputs": [],
      "outputs": [
        {
          "name": "",
          "type": "bool",
          "internalType": "bool"
        }
      ],
      "stateMutability": "view"
    },
    {
      "type": "function",
      "name": "setEmergencyPause",
      "inputs": [
        {
          "name": "paused",
          "type": "bool",
          "internalType": "bool"
        }
      ],
      "outputs": [],
      "stateMutability": "nonpayable"
    },
    {
      "type": "function",
      "name": "emergencyDrain",
      "inputs": [],
      "outputs": [],
      "stateMutability": "nonpayable"
    },
    {
      "type": "function",
      "name": "pendingMigrations",
      "inputs": [
        {
          "name": "",
          "type": "address",
          "internalType": "address"
        }
      ],
      "outputs": [
        {
          "name": "exists",
          "type": "bool",
          "internalType": "bool"
        },
        {
          "name": "newAddress",
          "type": "address",
          "internalType": "address"
        }
      ],
      "stateMutability": "view"
    },
    {
      "type": "function",
      "name": "pendingTerms",
      "inputs": [
        {
          "name": "",
          "type": "address",
          "internalType": "address"
        }
      ],
      "outputs": [
        {
          "name": "exists",
          "type": "bool",
          "internalType": "bool"
        },
        {
          "name": "timeline",
          "type": "uint8",
          "internalType": "enum StreamWagePayroll.Timeline"
        },
        {
          "name": "amountPerIntervalWei",
          "type": "uint256",
          "internalType": "uint256"
        },
        {
          "name": "intervalSeconds",
          "type": "uint256",
          "internalType": "uint256"
        },
        {
          "name": "terminateOnReject",
          "type": "bool",
          "internalType": "bool"
        },
        {
          "name": "expiryTimestamp",
          "type": "uint256",
          "internalType": "uint256"
        }
      ],
      "stateMutability": "view"
    },
    {
      "type": "function",
      "name": "proposeMigration",
      "inputs": [
        {
          "name": "newAddress",
          "type": "address",
          "internalType": "address"
        }
      ],
      "outputs": [],
      "stateMutability": "nonpayable"
    },
    {
      "type": "function",
      "name": "proposeTerms",
      "inputs": [
        {
          "name": "workerAddr",
          "type": "address",
          "internalType": "address"
        },
        {
          "name": "timeline",
          "type": "uint8",
          "internalType": "enum StreamWagePayroll.Timeline"
        },
        {
          "name": "amountPerIntervalWei",
          "type": "uint256",
          "internalType": "uint256"
        },
        {
          "name": "customIntervalSeconds",
          "type": "uint256",
          "internalType": "uint256"
        },
        {
          "name": "terminateOnReject",
          "type": "bool",
          "internalType": "bool"
        },
        {
          "name": "proposalNote",
          "type": "string",
          "internalType": "string"
        }
      ],
      "outputs": [],
      "stateMutability": "nonpayable"
    },
    {
      "type": "function",
      "name": "rejectTerms",
      "inputs": [],
      "outputs": [],
      "stateMutability": "nonpayable"
    },
    {
      "type": "function",
      "name": "setAdmin",
      "inputs": [
        {
          "name": "admin",
          "type": "address",
          "internalType": "address"
        },
        {
          "name": "enabled",
          "type": "bool",
          "internalType": "bool"
        }
      ],
      "outputs": [],
      "stateMutability": "nonpayable"
    },
    {
      "type": "function",
      "name": "setLowTreasuryThreshold",
      "inputs": [
        {
          "name": "thresholdSeconds",
          "type": "uint256",
          "internalType": "uint256"
        }
      ],
      "outputs": [],
      "stateMutability": "nonpayable"
    },
    {
      "type": "function",
      "name": "setProposalWindow",
      "inputs": [
        {
          "name": "durationSeconds",
          "type": "uint256",
          "internalType": "uint256"
        }
      ],
      "outputs": [],
      "stateMutability": "nonpayable"
    },
    {
      "type": "function",
      "name": "setWorkerStatus",
      "inputs": [
        {
          "name": "workerAddr",
          "type": "address",
          "internalType": "address"
        },
        {
          "name": "active",
          "type": "bool",
          "internalType": "bool"
        }
      ],
      "outputs": [],
      "stateMutability": "nonpayable"
    },
    {
      "type": "function",
      "name": "transferOwnership",
      "inputs": [
        {
          "name": "newOwner",
          "type": "address",
          "internalType": "address"
        }
      ],
      "outputs": [],
      "stateMutability": "nonpayable"
    },
    {
      "type": "function",
      "name": "treasuryRunway",
      "inputs": [],
      "outputs": [
        {
          "name": "totalRatePerSecond",
          "type": "uint256",
          "internalType": "uint256"
        },
        {
          "name": "estimatedRunwaySeconds",
          "type": "uint256",
          "internalType": "uint256"
        }
      ],
      "stateMutability": "view"
    },
    {
      "type": "function",
      "name": "updateWorkerInterval",
      "inputs": [
        {
          "name": "workerAddr",
          "type": "address",
          "internalType": "address"
        },
        {
          "name": "timeline",
          "type": "uint8",
          "internalType": "enum StreamWagePayroll.Timeline"
        },
        {
          "name": "customIntervalSeconds",
          "type": "uint256",
          "internalType": "uint256"
        }
      ],
      "outputs": [],
      "stateMutability": "nonpayable"
    },
    {
      "type": "function",
      "name": "updateWorkerMetadata",
      "inputs": [
        {
          "name": "workerAddr",
          "type": "address",
          "internalType": "address"
        },
        {
          "name": "metadata",
          "type": "string",
          "internalType": "string"
        }
      ],
      "outputs": [],
      "stateMutability": "nonpayable"
    },
    {
      "type": "function",
      "name": "updateWorkerRate",
      "inputs": [
        {
          "name": "workerAddr",
          "type": "address",
          "internalType": "address"
        },
        {
          "name": "amountPerIntervalWei",
          "type": "uint256",
          "internalType": "uint256"
        }
      ],
      "outputs": [],
      "stateMutability": "nonpayable"
    },
    {
      "type": "function",
      "name": "withdrawExcess",
      "inputs": [
        {
          "name": "recipient",
          "type": "address",
          "internalType": "address"
        },
        {
          "name": "amountWei",
          "type": "uint256",
          "internalType": "uint256"
        }
      ],
      "outputs": [],
      "stateMutability": "nonpayable"
    },
    {
      "type": "function",
      "name": "workerList",
      "inputs": [
        {
          "name": "",
          "type": "uint256",
          "internalType": "uint256"
        }
      ],
      "outputs": [
        {
          "name": "",
          "type": "address",
          "internalType": "address"
        }
      ],
      "stateMutability": "view"
    },
    {
      "type": "function",
      "name": "workerRunway",
      "inputs": [
        {
          "name": "workerAddr",
          "type": "address",
          "internalType": "address"
        }
      ],
      "outputs": [
        {
          "name": "estimatedRunwaySeconds",
          "type": "uint256",
          "internalType": "uint256"
        }
      ],
      "stateMutability": "view"
    },
    {
      "type": "function",
      "name": "workers",
      "inputs": [
        {
          "name": "",
          "type": "address",
          "internalType": "address"
        }
      ],
      "outputs": [
        {
          "name": "exists",
          "type": "bool",
          "internalType": "bool"
        },
        {
          "name": "active",
          "type": "bool",
          "internalType": "bool"
        },
        {
          "name": "timeline",
          "type": "uint8",
          "internalType": "enum StreamWagePayroll.Timeline"
        },
        {
          "name": "amountPerIntervalWei",
          "type": "uint256",
          "internalType": "uint256"
        },
        {
          "name": "intervalSeconds",
          "type": "uint256",
          "internalType": "uint256"
        },
        {
          "name": "accruedWei",
          "type": "uint256",
          "internalType": "uint256"
        },
        {
          "name": "totalClaimedWei",
          "type": "uint256",
          "internalType": "uint256"
        },
        {
          "name": "lastAccruedAt",
          "type": "uint64",
          "internalType": "uint64"
        },
        {
          "name": "metadata",
          "type": "string",
          "internalType": "string"
        }
      ],
      "stateMutability": "view"
    },
    {
      "type": "event",
      "name": "AdminUpdated",
      "inputs": [
        {
          "name": "admin",
          "type": "address",
          "indexed": true,
          "internalType": "address"
        },
        {
          "name": "enabled",
          "type": "bool",
          "indexed": false,
          "internalType": "bool"
        }
      ],
      "anonymous": false
    },
    {
      "type": "event",
      "name": "Claimed",
      "inputs": [
        {
          "name": "worker",
          "type": "address",
          "indexed": true,
          "internalType": "address"
        },
        {
          "name": "recipient",
          "type": "address",
          "indexed": true,
          "internalType": "address"
        },
        {
          "name": "amount",
          "type": "uint256",
          "indexed": false,
          "internalType": "uint256"
        }
      ],
      "anonymous": false
    },
    {
      "type": "event",
      "name": "ExcessWithdrawn",
      "inputs": [
        {
          "name": "recipient",
          "type": "address",
          "indexed": true,
          "internalType": "address"
        },
        {
          "name": "amountWei",
          "type": "uint256",
          "indexed": false,
          "internalType": "uint256"
        },
        {
          "name": "remainingBalance",
          "type": "uint256",
          "indexed": false,
          "internalType": "uint256"
        }
      ],
      "anonymous": false
    },
    {
      "type": "event",
      "name": "LowTreasury",
      "inputs": [
        {
          "name": "worker",
          "type": "address",
          "indexed": true,
          "internalType": "address"
        },
        {
          "name": "estimatedRunwaySeconds",
          "type": "uint256",
          "indexed": false,
          "internalType": "uint256"
        }
      ],
      "anonymous": false
    },
    {
      "type": "event",
      "name": "LowTreasuryThresholdUpdated",
      "inputs": [
        {
          "name": "newThresholdSeconds",
          "type": "uint256",
          "indexed": false,
          "internalType": "uint256"
        }
      ],
      "anonymous": false
    },
    {
      "type": "event",
      "name": "MigrationCancelled",
      "inputs": [
        {
          "name": "oldAddress",
          "type": "address",
          "indexed": true,
          "internalType": "address"
        },
        {
          "name": "newAddress",
          "type": "address",
          "indexed": true,
          "internalType": "address"
        }
      ],
      "anonymous": false
    },
    {
      "type": "event",
      "name": "MigrationCompleted",
      "inputs": [
        {
          "name": "oldAddress",
          "type": "address",
          "indexed": true,
          "internalType": "address"
        },
        {
          "name": "newAddress",
          "type": "address",
          "indexed": true,
          "internalType": "address"
        }
      ],
      "anonymous": false
    },
    {
      "type": "event",
      "name": "MigrationProposed",
      "inputs": [
        {
          "name": "oldAddress",
          "type": "address",
          "indexed": true,
          "internalType": "address"
        },
        {
          "name": "newAddress",
          "type": "address",
          "indexed": true,
          "internalType": "address"
        }
      ],
      "anonymous": false
    },
    {
      "type": "event",
      "name": "OwnerTransferred",
      "inputs": [
        {
          "name": "previousOwner",
          "type": "address",
          "indexed": true,
          "internalType": "address"
        },
        {
          "name": "newOwner",
          "type": "address",
          "indexed": true,
          "internalType": "address"
        }
      ],
      "anonymous": false
    },
    {
      "type": "event",
      "name": "ProposalCancelled",
      "inputs": [
        {
          "name": "worker",
          "type": "address",
          "indexed": true,
          "internalType": "address"
        }
      ],
      "anonymous": false
    },
    {
      "type": "event",
      "name": "ProposalExpired",
      "inputs": [
        {
          "name": "worker",
          "type": "address",
          "indexed": true,
          "internalType": "address"
        },
        {
          "name": "terminated",
          "type": "bool",
          "indexed": false,
          "internalType": "bool"
        }
      ],
      "anonymous": false
    },
    {
      "type": "event",
      "name": "ProposalWindowUpdated",
      "inputs": [
        {
          "name": "newWindowSeconds",
          "type": "uint256",
          "indexed": false,
          "internalType": "uint256"
        }
      ],
      "anonymous": false
    },
    {
      "type": "event",
      "name": "TermsAccepted",
      "inputs": [
        {
          "name": "worker",
          "type": "address",
          "indexed": true,
          "internalType": "address"
        }
      ],
      "anonymous": false
    },
    {
      "type": "event",
      "name": "TermsProposed",
      "inputs": [
        {
          "name": "worker",
          "type": "address",
          "indexed": true,
          "internalType": "address"
        },
        {
          "name": "timeline",
          "type": "uint8",
          "indexed": false,
          "internalType": "enum StreamWagePayroll.Timeline"
        },
        {
          "name": "amountPerIntervalWei",
          "type": "uint256",
          "indexed": false,
          "internalType": "uint256"
        },
        {
          "name": "intervalSeconds",
          "type": "uint256",
          "indexed": false,
          "internalType": "uint256"
        },
        {
          "name": "terminateOnReject",
          "type": "bool",
          "indexed": false,
          "internalType": "bool"
        },
        {
          "name": "expiryTimestamp",
          "type": "uint256",
          "indexed": false,
          "internalType": "uint256"
        },
        {
          "name": "proposalNote",
          "type": "string",
          "internalType": "string",
          "indexed": false
        }
      ],
      "anonymous": false
    },
    {
      "type": "event",
      "name": "TermsRejected",
      "inputs": [
        {
          "name": "worker",
          "type": "address",
          "indexed": true,
          "internalType": "address"
        }
      ],
      "anonymous": false
    },
    {
      "type": "event",
      "name": "TreasuryFunded",
      "inputs": [
        {
          "name": "from",
          "type": "address",
          "indexed": true,
          "internalType": "address"
        },
        {
          "name": "amount",
          "type": "uint256",
          "indexed": false,
          "internalType": "uint256"
        }
      ],
      "anonymous": false
    },
    {
      "type": "event",
      "name": "TriggerPaymentGranted",
      "inputs": [
        {
          "name": "worker",
          "type": "address",
          "indexed": true,
          "internalType": "address"
        },
        {
          "name": "amount",
          "type": "uint256",
          "indexed": false,
          "internalType": "uint256"
        }
      ],
      "anonymous": false
    },
    {
      "type": "event",
      "name": "WorkerAdded",
      "inputs": [
        {
          "name": "worker",
          "type": "address",
          "indexed": true,
          "internalType": "address"
        },
        {
          "name": "timeline",
          "type": "uint8",
          "indexed": false,
          "internalType": "enum StreamWagePayroll.Timeline"
        },
        {
          "name": "amountPerIntervalWei",
          "type": "uint256",
          "indexed": false,
          "internalType": "uint256"
        },
        {
          "name": "intervalSeconds",
          "type": "uint256",
          "indexed": false,
          "internalType": "uint256"
        },
        {
          "name": "metadata",
          "type": "string",
          "indexed": false,
          "internalType": "string"
        }
      ],
      "anonymous": false
    },
    {
      "type": "event",
      "name": "WorkerIntervalUpdated",
      "inputs": [
        {
          "name": "worker",
          "type": "address",
          "indexed": true,
          "internalType": "address"
        },
        {
          "name": "timeline",
          "type": "uint8",
          "indexed": false,
          "internalType": "enum StreamWagePayroll.Timeline"
        },
        {
          "name": "intervalSeconds",
          "type": "uint256",
          "indexed": false,
          "internalType": "uint256"
        }
      ],
      "anonymous": false
    },
    {
      "type": "event",
      "name": "WorkerMetadataUpdated",
      "inputs": [
        {
          "name": "worker",
          "type": "address",
          "indexed": true,
          "internalType": "address"
        },
        {
          "name": "metadata",
          "type": "string",
          "indexed": false,
          "internalType": "string"
        }
      ],
      "anonymous": false
    },
    {
      "type": "event",
      "name": "WorkerRateUpdated",
      "inputs": [
        {
          "name": "worker",
          "type": "address",
          "indexed": true,
          "internalType": "address"
        },
        {
          "name": "amountPerIntervalWei",
          "type": "uint256",
          "indexed": false,
          "internalType": "uint256"
        }
      ],
      "anonymous": false
    },
    {
      "type": "event",
      "name": "WorkerStatusUpdated",
      "inputs": [
        {
          "name": "worker",
          "type": "address",
          "indexed": true,
          "internalType": "address"
        },
        {
          "name": "active",
          "type": "bool",
          "indexed": false,
          "internalType": "bool"
        }
      ],
      "anonymous": false
    },
    {
      "type": "event",
      "name": "WorkerTerminated",
      "inputs": [
        {
          "name": "worker",
          "type": "address",
          "indexed": true,
          "internalType": "address"
        }
      ],
      "anonymous": false
    },
    {
      "type": "error",
      "name": "InsufficientTreasury",
      "inputs": []
    },
    {
      "type": "error",
      "name": "InvalidAmount",
      "inputs": []
    },
    {
      "type": "error",
      "name": "InvalidConfiguration",
      "inputs": []
    },
    {
      "type": "error",
      "name": "InvalidWorker",
      "inputs": []
    },
    {
      "type": "error",
      "name": "MigrationAlreadyPending",
      "inputs": []
    },
    {
      "type": "error",
      "name": "NoClaimableBalance",
      "inputs": []
    },
    {
      "type": "error",
      "name": "NoPendingMigration",
      "inputs": []
    },
    {
      "type": "error",
      "name": "NoPendingProposal",
      "inputs": []
    },
    {
      "type": "error",
      "name": "NotMigrationRecipient",
      "inputs": []
    },
    {
      "type": "error",
      "name": "NotOperator",
      "inputs": []
    },
    {
      "type": "error",
      "name": "NotOwner",
      "inputs": []
    },
    {
      "type": "error",
      "name": "ProposalAlreadyPending",
      "inputs": []
    },
    {
      "type": "error",
      "name": "ProposalExpiredError",
      "inputs": []
    },
    {
      "type": "error",
      "name": "ProposalNotExpired",
      "inputs": []
    },
    {
      "type": "error",
      "name": "TransferFailed",
      "inputs": []
    },
    {
      "type": "error",
      "name": "WithdrawalExceedsSafeLimit",
      "inputs": []
    },
    {
      "type": "error",
      "name": "WorkerAlreadyExists",
      "inputs": []
    }
  ],
  "bytecode": {
    "object": "0x608060405262093a8060055562093a8060075534801561001d575f80fd5b50604051615dff380380615dff833981810160405281019061003f91906101a1565b5f73ffffffffffffffffffffffffffffffffffffffff168173ffffffffffffffffffffffffffffffffffffffff16036100a4576040517fc52a9bd300000000000000000000000000000000000000000000000000000000815260040160405180910390fd5b805f806101000a81548173ffffffffffffffffffffffffffffffffffffffff021916908373ffffffffffffffffffffffffffffffffffffffff1602179055508073ffffffffffffffffffffffffffffffffffffffff165f73ffffffffffffffffffffffffffffffffffffffff167f8934ce4adea8d9ce0d714d2c22b86790e41b7731c84b926fbbdc1d40ff6533c960405160405180910390a3506101cc565b5f80fd5b5f73ffffffffffffffffffffffffffffffffffffffff82169050919050565b5f61017082610147565b9050919050565b61018081610166565b811461018a575f80fd5b50565b5f8151905061019b81610177565b92915050565b5f602082840312156101b6576101b5610143565b5b5f6101c38482850161018d565b91505092915050565b615c26806101d95f395ff3fe6080604052600436106101f1575f3560e01c8063815af9081161010c578063a63606751161009f578063b9c186851161006e578063b9c186851461072d578063ca8adcea14610737578063e66a6b921461075f578063f2fde38b14610787578063f817b594146107af57610246565b8063a636067514610674578063af8df99d1461069c578063b3747a51146106c4578063b824f73a146106ec57610246565b806397feb103116100db57806397feb103146105ab578063a104a1ee146105d3578063a262f5f814610610578063a2b2deac1461064c57610246565b8063815af9081461051b57806386215a3d146105315780638da5cb5b1461055957806395f32a8a1461058357610246565b80634e71d92d116101845780635fd296da116101535780635fd296da1461048b57806365b509e1146104b35780636e90013d146104c9578063734bacc5146104f157610246565b80634e71d92d146103e6578063550070d414610410578063555c26991461043b578063566a4ce81461046357610246565b80634048a257116101c05780634048a25714610302578063429b62e5146103465780634b0bddd2146103825780634d432c1d146103aa57610246565b806310639ea01461024a57806322e9588a14610260578063373bfeae1461029c578063402914f5146102c657610246565b36610246573373ffffffffffffffffffffffffffffffffffffffff167fda1785fe1dec267c363b06ae3e02c3e086123f9d611399f7a1cc98492518372e3460405161023c9190614eb6565b60405180910390a2005b5f80fd5b348015610255575f80fd5b5061025e6107d7565b005b34801561026b575f80fd5b5061028660048036038101906102819190614f31565b61095a565b6040516102939190614eb6565b60405180910390f35b3480156102a7575f80fd5b506102b0610ae6565b6040516102bd9190614eb6565b60405180910390f35b3480156102d1575f80fd5b506102ec60048036038101906102e79190614f31565b610aec565b6040516102f99190614eb6565b60405180910390f35b34801561030d575f80fd5b5061032860048036038101906103239190614f31565b610c43565b60405161033d9998979695949392919061507b565b60405180910390f35b348015610351575f80fd5b5061036c60048036038101906103679190614f31565b610d4a565b604051610379919061510d565b60405180910390f35b34801561038d575f80fd5b506103a860048036038101906103a39190615150565b610d67565b005b3480156103b5575f80fd5b506103d060048036038101906103cb91906151b8565b610ef6565b6040516103dd91906151f2565b60405180910390f35b3480156103f1575f80fd5b506103fa610f31565b6040516104079190614eb6565b60405180910390f35b34801561041b575f80fd5b50610424610f41565b60405161043292919061520b565b60405180910390f35b348015610446575f80fd5b50610461600480360381019061045c9190615255565b6110b6565b005b34801561046e575f80fd5b5061048960048036038101906104849190615150565b6114b9565b005b348015610496575f80fd5b506104b160048036038101906104ac919061532d565b61168f565b005b3480156104be575f80fd5b506104c7611858565b005b3480156104d4575f80fd5b506104ef60048036038101906104ea919061538a565b6119c2565b005b3480156104fc575f80fd5b50610505611dfe565b6040516105129190614eb6565b60405180910390f35b348015610526575f80fd5b5061052f611e04565b005b34801561053c575f80fd5b5061055760048036038101906105529190614f31565b6121a4565b005b348015610564575f80fd5b5061056d612529565b60405161057a91906151f2565b60405180910390f35b34801561058e575f80fd5b506105a960048036038101906105a491906151b8565b61254c565b005b3480156105b6575f80fd5b506105d160048036038101906105cc9190614f31565b61269f565b005b3480156105de575f80fd5b506105f960048036038101906105f49190614f31565b61280f565b6040516106079291906153c8565b60405180910390f35b34801561061b575f80fd5b5061063660048036038101906106319190614f31565b61285a565b6040516106439190614eb6565b60405180910390f35b348015610657575f80fd5b50610672600480360381019061066d919061538a565b6128d1565b005b34801561067f575f80fd5b5061069a600480360381019061069591906153ef565b612b8a565b005b3480156106a7575f80fd5b506106c260048036038101906106bd9190614f31565b612eb0565b005b3480156106cf575f80fd5b506106ea60048036038101906106e5919061538a565b6131b0565b005b3480156106f7575f80fd5b50610712600480360381019061070d9190614f31565b6133ee565b6040516107249695949392919061543f565b60405180910390f35b61073561344a565b005b348015610742575f80fd5b5061075d6004803603810190610758919061549e565b6135ac565b005b34801561076a575f80fd5b50610785600480360381019061078091906151b8565b613a60565b005b348015610792575f80fd5b506107ad60048036038101906107a89190614f31565b613b25565b005b3480156107ba575f80fd5b506107d560048036038101906107d09190614f31565b613ccf565b005b5f60035f3373ffffffffffffffffffffffffffffffffffffffff1673ffffffffffffffffffffffffffffffffffffffff1681526020019081526020015f209050805f015f9054906101000a900460ff1661085d576040517ff0c16f1900000000000000000000000000000000000000000000000000000000815260040160405180910390fd5b5f815f0160019054906101000a900473ffffffffffffffffffffffffffffffffffffffff16905060035f3373ffffffffffffffffffffffffffffffffffffffff1673ffffffffffffffffffffffffffffffffffffffff1681526020019081526020015f205f8082015f6101000a81549060ff02191690555f820160016101000a81549073ffffffffffffffffffffffffffffffffffffffff021916905550508073ffffffffffffffffffffffffffffffffffffffff163373ffffffffffffffffffffffffffffffffffffffff167f91c6a7a3addeee139ab5f1b2591add7e2d7f94938c3d190bdbfc50d1e4d922d260405160405180910390a35050565b5f8060025f8473ffffffffffffffffffffffffffffffffffffffff1673ffffffffffffffffffffffffffffffffffffffff1681526020019081526020015f209050805f015f9054906101000a900460ff166109b8575f915050610ae1565b805f0160019054906101000a900460ff166109d6575f915050610ae1565b6003808111156109e9576109e8614f76565b5b815f0160029054906101000a900460ff166003811115610a0c57610a0b614f76565b5b03610a1a575f915050610ae1565b5f816002015403610a2e575f915050610ae1565b5f610a37610f41565b5090505f8103610a6b577fffffffffffffffffffffffffffffffffffffffffffffffffffffffffffffffff92505050610ae1565b5f82600201548360010154610a80919061558e565b90505f8103610ab4577fffffffffffffffffffffffffffffffffffffffffffffffffffffffffffffffff9350505050610ae1565b5f828247610ac291906155be565b610acc919061558e565b90508181610ada919061558e565b9450505050505b919050565b60075481565b5f8060025f8473ffffffffffffffffffffffffffffffffffffffff1673ffffffffffffffffffffffffffffffffffffffff1681526020019081526020015f209050805f015f9054906101000a900460ff16610b4a575f915050610c3e565b5f81600301549050815f0160019054906101000a900460ff161580610ba25750600380811115610b7d57610b7c614f76565b5b825f0160029054906101000a900460ff166003811115610ba057610b9f614f76565b5b145b15610bb1578092505050610c3e565b5f826002015403610bc6578092505050610c3e565b5f826005015f9054906101000a900467ffffffffffffffff1667ffffffffffffffff1642610bf491906155ff565b90505f836002015482610c07919061558e565b90505f8103610c1c5782945050505050610c3e565b836001015481610c2c91906155be565b83610c379190615632565b9450505050505b919050565b6002602052805f5260405f205f91509050805f015f9054906101000a900460ff1690805f0160019054906101000a900460ff1690805f0160029054906101000a900460ff1690806001015490806002015490806003015490806004015490806005015f9054906101000a900467ffffffffffffffff1690806006018054610cc990615692565b80601f0160208091040260200160405190810160405280929190818152602001828054610cf590615692565b8015610d405780601f10610d1757610100808354040283529160200191610d40565b820191905f5260205f20905b815481529060010190602001808311610d2357829003601f168201915b5050505050905089565b6001602052805f5260405f205f915054906101000a900460ff1681565b5f8054906101000a900473ffffffffffffffffffffffffffffffffffffffff1673ffffffffffffffffffffffffffffffffffffffff163373ffffffffffffffffffffffffffffffffffffffff1614610deb576040517f30cd747100000000000000000000000000000000000000000000000000000000815260040160405180910390fd5b5f73ffffffffffffffffffffffffffffffffffffffff168273ffffffffffffffffffffffffffffffffffffffff1603610e50576040517fc52a9bd300000000000000000000000000000000000000000000000000000000815260040160405180910390fd5b8060015f8473ffffffffffffffffffffffffffffffffffffffff1673ffffffffffffffffffffffffffffffffffffffff1681526020019081526020015f205f6101000a81548160ff0219169083151502179055508173ffffffffffffffffffffffffffffffffffffffff167f235bc17e7930760029e9f4d860a2a8089976de5b381cf8380fc11c1d88a1113382604051610eea919061510d565b60405180910390a25050565b60068181548110610f05575f80fd5b905f5260205f20015f915054906101000a900473ffffffffffffffffffffffffffffffffffffffff1681565b5f610f3c33336143db565b905090565b5f805f60068054905090505f5b8181101561106e575f60025f60068481548110610f6e57610f6d6156c2565b5b905f5260205f20015f9054906101000a900473ffffffffffffffffffffffffffffffffffffffff1673ffffffffffffffffffffffffffffffffffffffff1673ffffffffffffffffffffffffffffffffffffffff1681526020019081526020015f209050805f0160019054906101000a900460ff16610fec5750611061565b600380811115610fff57610ffe614f76565b5b815f0160029054906101000a900460ff16600381111561102257611021614f76565b5b0361102d5750611061565b5f81600201540361103e5750611061565b80600201548160010154611052919061558e565b8561105d9190615632565b9450505b8080600101915050610f4e565b505f83036110a2575f7fffffffffffffffffffffffffffffffffffffffffffffffffffffffffffffffff92509250506110b2565b82476110ae919061558e565b9150505b9091565b5f8054906101000a900473ffffffffffffffffffffffffffffffffffffffff1673ffffffffffffffffffffffffffffffffffffffff163373ffffffffffffffffffffffffffffffffffffffff1614158015611158575060015f3373ffffffffffffffffffffffffffffffffffffffff1673ffffffffffffffffffffffffffffffffffffffff1681526020019081526020015f205f9054906101000a900460ff16155b1561118f576040517f7c214f0400000000000000000000000000000000000000000000000000000000815260040160405180910390fd5b5f60025f8773ffffffffffffffffffffffffffffffffffffffff1673ffffffffffffffffffffffffffffffffffffffff1681526020019081526020015f209050805f015f9054906101000a900460ff16611215576040517fc905160300000000000000000000000000000000000000000000000000000000815260040160405180910390fd5b60045f8773ffffffffffffffffffffffffffffffffffffffff1673ffffffffffffffffffffffffffffffffffffffff1681526020019081526020015f205f015f9054906101000a900460ff1615611298576040517f0c12a13500000000000000000000000000000000000000000000000000000000815260040160405180910390fd5b5f6112a386856147f9565b90506003808111156112b8576112b7614f76565b5b8660038111156112cb576112ca614f76565b5b141580156112d857505f85145b1561130f576040517f2c5211c600000000000000000000000000000000000000000000000000000000815260040160405180910390fd5b6113188261493e565b5f825f0160016101000a81548160ff0219169083151502179055506040518060c0016040528060011515815260200187600381111561135a57611359614f76565b5b81526020018681526020018281526020018415158152602001600554426113819190615632565b81525060045f8973ffffffffffffffffffffffffffffffffffffffff1673ffffffffffffffffffffffffffffffffffffffff1681526020019081526020015f205f820151815f015f6101000a81548160ff0219169083151502179055506020820151815f0160016101000a81548160ff0219169083600381111561140857611407614f76565b5b021790555060408201518160010155606082015181600201556080820151816003015f6101000a81548160ff02191690831515021790555060a082015181600401559050508673ffffffffffffffffffffffffffffffffffffffff167f8f00515605553bbbfd69d774c0768b3e5b2f5362cd606b7c554c76291ba0020c87878487600554426114979190615632565b6040516114a89594939291906156ef565b60405180910390a250505050505050565b5f8054906101000a900473ffffffffffffffffffffffffffffffffffffffff1673ffffffffffffffffffffffffffffffffffffffff163373ffffffffffffffffffffffffffffffffffffffff161415801561155b575060015f3373ffffffffffffffffffffffffffffffffffffffff1673ffffffffffffffffffffffffffffffffffffffff1681526020019081526020015f205f9054906101000a900460ff16155b15611592576040517f7c214f0400000000000000000000000000000000000000000000000000000000815260040160405180910390fd5b5f60025f8473ffffffffffffffffffffffffffffffffffffffff1673ffffffffffffffffffffffffffffffffffffffff1681526020019081526020015f209050805f015f9054906101000a900460ff16611618576040517fc905160300000000000000000000000000000000000000000000000000000000815260040160405180910390fd5b6116218161493e565b81815f0160016101000a81548160ff0219169083151502179055508273ffffffffffffffffffffffffffffffffffffffff167f95a1c11e859a826e8aabaf69fc3e207ad8e75a1ef162ec3bd876fda45799a88983604051611682919061510d565b60405180910390a2505050565b5f8054906101000a900473ffffffffffffffffffffffffffffffffffffffff1673ffffffffffffffffffffffffffffffffffffffff163373ffffffffffffffffffffffffffffffffffffffff1614158015611731575060015f3373ffffffffffffffffffffffffffffffffffffffff1673ffffffffffffffffffffffffffffffffffffffff1681526020019081526020015f205f9054906101000a900460ff16155b15611768576040517f7c214f0400000000000000000000000000000000000000000000000000000000815260040160405180910390fd5b5f60025f8573ffffffffffffffffffffffffffffffffffffffff1673ffffffffffffffffffffffffffffffffffffffff1681526020019081526020015f209050805f015f9054906101000a900460ff166117ee576040517fc905160300000000000000000000000000000000000000000000000000000000815260040160405180910390fd5b8282826006019182611801929190615914565b508373ffffffffffffffffffffffffffffffffffffffff167fee27f435fe33c29502f62b8ceb9792675ba9f628619d2062ab5d4ca3269c1e00848460405161184a929190615a1b565b60405180910390a250505050565b5f60025f3373ffffffffffffffffffffffffffffffffffffffff1673ffffffffffffffffffffffffffffffffffffffff1681526020019081526020015f209050805f015f9054906101000a900460ff166118de576040517fc905160300000000000000000000000000000000000000000000000000000000815260040160405180910390fd5b5f60045f3373ffffffffffffffffffffffffffffffffffffffff1673ffffffffffffffffffffffffffffffffffffffff1681526020019081526020015f209050805f015f9054906101000a900460ff16611964576040517fb1713b6a00000000000000000000000000000000000000000000000000000000815260040160405180910390fd5b80600401544211156119a2576040517f5038740700000000000000000000000000000000000000000000000000000000815260040160405180910390fd5b6119be3383836003015f9054906101000a900460ff165f614a81565b5050565b5f8054906101000a900473ffffffffffffffffffffffffffffffffffffffff1673ffffffffffffffffffffffffffffffffffffffff163373ffffffffffffffffffffffffffffffffffffffff1614158015611a64575060015f3373ffffffffffffffffffffffffffffffffffffffff1673ffffffffffffffffffffffffffffffffffffffff1681526020019081526020015f205f9054906101000a900460ff16155b15611a9b576040517f7c214f0400000000000000000000000000000000000000000000000000000000815260040160405180910390fd5b5f73ffffffffffffffffffffffffffffffffffffffff168273ffffffffffffffffffffffffffffffffffffffff1603611b00576040517fc52a9bd300000000000000000000000000000000000000000000000000000000815260040160405180910390fd5b5f8103611b39576040517f2c5211c600000000000000000000000000000000000000000000000000000000815260040160405180910390fd5b5f60068054905090505f805f90505b82811015611c71575f60025f60068481548110611b6857611b676156c2565b5b905f5260205f20015f9054906101000a900473ffffffffffffffffffffffffffffffffffffffff1673ffffffffffffffffffffffffffffffffffffffff1673ffffffffffffffffffffffffffffffffffffffff1681526020019081526020015f209050805f0160019054906101000a900460ff16611be65750611c64565b600380811115611bf957611bf8614f76565b5b815f0160029054906101000a900460ff166003811115611c1c57611c1b614f76565b5b03611c275750611c64565b5f816002015403611c385750611c64565b611c418161493e565b80600201548160010154611c55919061558e565b83611c609190615632565b9250505b8080600101915050611b48565b505f610e1082611c8191906155be565b905080471015611cbd576040517f2b032ca200000000000000000000000000000000000000000000000000000000815260040160405180910390fd5b5f8147611cca91906155ff565b905080851115611d06576040517f2b032ca200000000000000000000000000000000000000000000000000000000815260040160405180910390fd5b5f8673ffffffffffffffffffffffffffffffffffffffff1686604051611d2b90615a6a565b5f6040518083038185875af1925050503d805f8114611d65576040519150601f19603f3d011682016040523d82523d5f602084013e611d6a565b606091505b5050905080611da5576040517f90b8ec1800000000000000000000000000000000000000000000000000000000815260040160405180910390fd5b8673ffffffffffffffffffffffffffffffffffffffff167f992f462cfb62e164bd03bf07baf2cffce83fbd9370cae10635842b20200121208747604051611ded92919061520b565b60405180910390a250505050505050565b60055481565b5f60025f3373ffffffffffffffffffffffffffffffffffffffff1673ffffffffffffffffffffffffffffffffffffffff1681526020019081526020015f209050805f015f9054906101000a900460ff16611e8a576040517fc905160300000000000000000000000000000000000000000000000000000000815260040160405180910390fd5b5f60045f3373ffffffffffffffffffffffffffffffffffffffff1673ffffffffffffffffffffffffffffffffffffffff1681526020019081526020015f209050805f015f9054906101000a900460ff16611f10576040517fb1713b6a00000000000000000000000000000000000000000000000000000000815260040160405180910390fd5b8060040154421115611f4e576040517f5038740700000000000000000000000000000000000000000000000000000000815260040160405180910390fd5b8160020154816002015414158015611f6957505f8260020154115b8015611fa95750600380811115611f8357611f82614f76565b5b825f0160029054906101000a900460ff166003811115611fa657611fa5614f76565b5b14155b15612035575f826005015f9054906101000a900467ffffffffffffffff1667ffffffffffffffff1642611fdc91906155ff565b90505f836002015482611fef9190615a7e565b90505f81111561203257836002015484600101548261200e91906155be565b612018919061558e565b846003015f82825461202a9190615632565b925050819055505b50505b805f0160019054906101000a900460ff16825f0160026101000a81548160ff0219169083600381111561206b5761206a614f76565b5b021790555080600101548260010181905550806002015482600201819055506001825f0160016101000a81548160ff02191690831515021790555042826005015f6101000a81548167ffffffffffffffff021916908367ffffffffffffffff16021790555060045f3373ffffffffffffffffffffffffffffffffffffffff1673ffffffffffffffffffffffffffffffffffffffff1681526020019081526020015f205f8082015f6101000a81549060ff02191690555f820160016101000a81549060ff0219169055600182015f9055600282015f9055600382015f6101000a81549060ff0219169055600482015f905550503373ffffffffffffffffffffffffffffffffffffffff167fac268f7e07e832bf2aedd9f3ffd031ceb7a2b2553a288d8f509a34ee51f6b01f60405160405180910390a25050565b5f73ffffffffffffffffffffffffffffffffffffffff168173ffffffffffffffffffffffffffffffffffffffff1603612209576040517fc52a9bd300000000000000000000000000000000000000000000000000000000815260040160405180910390fd5b3373ffffffffffffffffffffffffffffffffffffffff168173ffffffffffffffffffffffffffffffffffffffff160361226e576040517fc52a9bd300000000000000000000000000000000000000000000000000000000815260040160405180910390fd5b5f60025f3373ffffffffffffffffffffffffffffffffffffffff1673ffffffffffffffffffffffffffffffffffffffff1681526020019081526020015f209050805f015f9054906101000a900460ff166122f4576040517fc905160300000000000000000000000000000000000000000000000000000000815260040160405180910390fd5b60025f8373ffffffffffffffffffffffffffffffffffffffff1673ffffffffffffffffffffffffffffffffffffffff1681526020019081526020015f205f015f9054906101000a900460ff1615612377576040517f430f177600000000000000000000000000000000000000000000000000000000815260040160405180910390fd5b60035f3373ffffffffffffffffffffffffffffffffffffffff1673ffffffffffffffffffffffffffffffffffffffff1681526020019081526020015f205f015f9054906101000a900460ff16156123fa576040517fff3dab9f00000000000000000000000000000000000000000000000000000000815260040160405180910390fd5b60405180604001604052806001151581526020018373ffffffffffffffffffffffffffffffffffffffff1681525060035f3373ffffffffffffffffffffffffffffffffffffffff1673ffffffffffffffffffffffffffffffffffffffff1681526020019081526020015f205f820151815f015f6101000a81548160ff0219169083151502179055506020820151815f0160016101000a81548173ffffffffffffffffffffffffffffffffffffffff021916908373ffffffffffffffffffffffffffffffffffffffff1602179055509050508173ffffffffffffffffffffffffffffffffffffffff163373ffffffffffffffffffffffffffffffffffffffff167ff7c1f85d2aa240ffd45baef2d8b7c207efc5c80b9445b29111e15a377753e04e60405160405180910390a35050565b5f8054906101000a900473ffffffffffffffffffffffffffffffffffffffff1681565b5f8054906101000a900473ffffffffffffffffffffffffffffffffffffffff1673ffffffffffffffffffffffffffffffffffffffff163373ffffffffffffffffffffffffffffffffffffffff16141580156125ee575060015f3373ffffffffffffffffffffffffffffffffffffffff1673ffffffffffffffffffffffffffffffffffffffff1681526020019081526020015f205f9054906101000a900460ff16155b15612625576040517f7c214f0400000000000000000000000000000000000000000000000000000000815260040160405180910390fd5b5f810361265e576040517fc52a9bd300000000000000000000000000000000000000000000000000000000815260040160405180910390fd5b806005819055507f76b82b817a32b66d6f81ff4d51b974ac74247dab33999b67bca7d860aab57ea5816040516126949190614eb6565b60405180910390a150565b5f60025f8373ffffffffffffffffffffffffffffffffffffffff1673ffffffffffffffffffffffffffffffffffffffff1681526020019081526020015f209050805f015f9054906101000a900460ff16612725576040517fc905160300000000000000000000000000000000000000000000000000000000815260040160405180910390fd5b5f60045f8473ffffffffffffffffffffffffffffffffffffffff1673ffffffffffffffffffffffffffffffffffffffff1681526020019081526020015f209050805f015f9054906101000a900460ff166127ab576040517fb1713b6a00000000000000000000000000000000000000000000000000000000815260040160405180910390fd5b806004015442116127e8576040517f8251df3000000000000000000000000000000000000000000000000000000000815260040160405180910390fd5b5f816003015f9054906101000a900460ff1690506128098484836001614a81565b50505050565b6003602052805f5260405f205f91509050805f015f9054906101000a900460ff1690805f0160019054906101000a900473ffffffffffffffffffffffffffffffffffffffff16905082565b5f8073ffffffffffffffffffffffffffffffffffffffff168273ffffffffffffffffffffffffffffffffffffffff16036128c0576040517fc52a9bd300000000000000000000000000000000000000000000000000000000815260040160405180910390fd5b6128ca33836143db565b9050919050565b5f8054906101000a900473ffffffffffffffffffffffffffffffffffffffff1673ffffffffffffffffffffffffffffffffffffffff163373ffffffffffffffffffffffffffffffffffffffff1614158015612973575060015f3373ffffffffffffffffffffffffffffffffffffffff1673ffffffffffffffffffffffffffffffffffffffff1681526020019081526020015f205f9054906101000a900460ff16155b156129aa576040517f7c214f0400000000000000000000000000000000000000000000000000000000815260040160405180910390fd5b5f81036129e3576040517f2c5211c600000000000000000000000000000000000000000000000000000000815260040160405180910390fd5b5f60025f8473ffffffffffffffffffffffffffffffffffffffff1673ffffffffffffffffffffffffffffffffffffffff1681526020019081526020015f209050805f015f9054906101000a900460ff16612a69576040517fc905160300000000000000000000000000000000000000000000000000000000815260040160405180910390fd5b600380811115612a7c57612a7b614f76565b5b815f0160029054906101000a900460ff166003811115612a9f57612a9e614f76565b5b14612ad6576040517fc52a9bd300000000000000000000000000000000000000000000000000000000815260040160405180910390fd5b805f0160019054906101000a900460ff16612b1d576040517fc52a9bd300000000000000000000000000000000000000000000000000000000815260040160405180910390fd5b81816003015f828254612b309190615632565b925050819055508273ffffffffffffffffffffffffffffffffffffffff167f0fe5a7b7663f26f587ce6d3d3b14ed918ceacabd0374141bd3df3fdb9e75734783604051612b7d9190614eb6565b60405180910390a2505050565b5f8054906101000a900473ffffffffffffffffffffffffffffffffffffffff1673ffffffffffffffffffffffffffffffffffffffff163373ffffffffffffffffffffffffffffffffffffffff1614158015612c2c575060015f3373ffffffffffffffffffffffffffffffffffffffff1673ffffffffffffffffffffffffffffffffffffffff1681526020019081526020015f205f9054906101000a900460ff16155b15612c63576040517f7c214f0400000000000000000000000000000000000000000000000000000000815260040160405180910390fd5b5f60025f8573ffffffffffffffffffffffffffffffffffffffff1673ffffffffffffffffffffffffffffffffffffffff1681526020019081526020015f209050805f015f9054906101000a900460ff16612ce9576040517fc905160300000000000000000000000000000000000000000000000000000000815260040160405180910390fd5b5f612cf484846147f9565b9050612cff8261493e565b81600201548114158015612d1657505f8260020154115b8015612d2f5750815f0160019054906101000a900460ff165b8015612d6f5750600380811115612d4957612d48614f76565b5b825f0160029054906101000a900460ff166003811115612d6c57612d6b614f76565b5b14155b15612e25575f826005015f9054906101000a900467ffffffffffffffff1667ffffffffffffffff1642612da291906155ff565b90505f836002015482612db59190615a7e565b90505f811115612df8578360020154846001015482612dd491906155be565b612dde919061558e565b846003015f828254612df09190615632565b925050819055505b42846005015f6101000a81548167ffffffffffffffff021916908367ffffffffffffffff16021790555050505b83825f0160026101000a81548160ff02191690836003811115612e4b57612e4a614f76565b5b02179055508082600201819055508473ffffffffffffffffffffffffffffffffffffffff167fe1dc74c32c160721195c4f75d69baf0db8d8381464b7186fadd3bdc0e94e8f698583604051612ea1929190615aae565b60405180910390a25050505050565b5f8054906101000a900473ffffffffffffffffffffffffffffffffffffffff1673ffffffffffffffffffffffffffffffffffffffff163373ffffffffffffffffffffffffffffffffffffffff1614158015612f52575060015f3373ffffffffffffffffffffffffffffffffffffffff1673ffffffffffffffffffffffffffffffffffffffff1681526020019081526020015f205f9054906101000a900460ff16155b15612f89576040517f7c214f0400000000000000000000000000000000000000000000000000000000815260040160405180910390fd5b5f60025f8373ffffffffffffffffffffffffffffffffffffffff1673ffffffffffffffffffffffffffffffffffffffff1681526020019081526020015f209050805f015f9054906101000a900460ff1661300f576040517fc905160300000000000000000000000000000000000000000000000000000000815260040160405180910390fd5b5f60045f8473ffffffffffffffffffffffffffffffffffffffff1673ffffffffffffffffffffffffffffffffffffffff1681526020019081526020015f209050805f015f9054906101000a900460ff16613095576040517fb1713b6a00000000000000000000000000000000000000000000000000000000815260040160405180910390fd5b60045f8473ffffffffffffffffffffffffffffffffffffffff1673ffffffffffffffffffffffffffffffffffffffff1681526020019081526020015f205f8082015f6101000a81549060ff02191690555f820160016101000a81549060ff0219169055600182015f9055600282015f9055600382015f6101000a81549060ff0219169055600482015f905550506001825f0160016101000a81548160ff02191690831515021790555042826005015f6101000a81548167ffffffffffffffff021916908367ffffffffffffffff1602179055508273ffffffffffffffffffffffffffffffffffffffff167f4538f80e606dc112c529fe1c118bb3d8f3d492a812f776b70e409a0b1853865760405160405180910390a2505050565b5f8054906101000a900473ffffffffffffffffffffffffffffffffffffffff1673ffffffffffffffffffffffffffffffffffffffff163373ffffffffffffffffffffffffffffffffffffffff1614158015613252575060015f3373ffffffffffffffffffffffffffffffffffffffff1673ffffffffffffffffffffffffffffffffffffffff1681526020019081526020015f205f9054906101000a900460ff16155b15613289576040517f7c214f0400000000000000000000000000000000000000000000000000000000815260040160405180910390fd5b5f60025f8473ffffffffffffffffffffffffffffffffffffffff1673ffffffffffffffffffffffffffffffffffffffff1681526020019081526020015f209050805f015f9054906101000a900460ff1661330f576040517fc905160300000000000000000000000000000000000000000000000000000000815260040160405180910390fd5b60038081111561332257613321614f76565b5b815f0160029054906101000a900460ff16600381111561334557613344614f76565b5b1415801561335257505f82145b15613389576040517f2c5211c600000000000000000000000000000000000000000000000000000000815260040160405180910390fd5b6133928161493e565b8181600101819055508273ffffffffffffffffffffffffffffffffffffffff167f88f1cd44ffae38c2984098fc8d5ee986f0dd01a6c72d65d810d9f6beedbb2067836040516133e19190614eb6565b60405180910390a2505050565b6004602052805f5260405f205f91509050805f015f9054906101000a900460ff1690805f0160019054906101000a900460ff1690806001015490806002015490806003015f9054906101000a900460ff16908060040154905086565b5f8054906101000a900473ffffffffffffffffffffffffffffffffffffffff1673ffffffffffffffffffffffffffffffffffffffff163373ffffffffffffffffffffffffffffffffffffffff16141580156134ec575060015f3373ffffffffffffffffffffffffffffffffffffffff1673ffffffffffffffffffffffffffffffffffffffff1681526020019081526020015f205f9054906101000a900460ff16155b15613523576040517f7c214f0400000000000000000000000000000000000000000000000000000000815260040160405180910390fd5b5f340361355c576040517f2c5211c600000000000000000000000000000000000000000000000000000000815260040160405180910390fd5b3373ffffffffffffffffffffffffffffffffffffffff167fda1785fe1dec267c363b06ae3e02c3e086123f9d611399f7a1cc98492518372e346040516135a29190614eb6565b60405180910390a2565b5f8054906101000a900473ffffffffffffffffffffffffffffffffffffffff1673ffffffffffffffffffffffffffffffffffffffff163373ffffffffffffffffffffffffffffffffffffffff161415801561364e575060015f3373ffffffffffffffffffffffffffffffffffffffff1673ffffffffffffffffffffffffffffffffffffffff1681526020019081526020015f205f9054906101000a900460ff16155b15613685576040517f7c214f0400000000000000000000000000000000000000000000000000000000815260040160405180910390fd5b5f73ffffffffffffffffffffffffffffffffffffffff168673ffffffffffffffffffffffffffffffffffffffff16036136ea576040517fc52a9bd300000000000000000000000000000000000000000000000000000000815260040160405180910390fd5b60025f8773ffffffffffffffffffffffffffffffffffffffff1673ffffffffffffffffffffffffffffffffffffffff1681526020019081526020015f205f015f9054906101000a900460ff161561376d576040517f430f177600000000000000000000000000000000000000000000000000000000815260040160405180910390fd5b5f61377886856147f9565b905060038081111561378d5761378c614f76565b5b8660038111156137a05761379f614f76565b5b141580156137ad57505f85145b156137e4576040517f2c5211c600000000000000000000000000000000000000000000000000000000815260040160405180910390fd5b60405180610120016040528060011515815260200160011515815260200187600381111561381557613814614f76565b5b81526020018681526020018281526020015f81526020015f81526020014267ffffffffffffffff16815260200184848080601f0160208091040260200160405190810160405280939291908181526020018383808284375f81840152601f19601f8201169050808301925050505050505081525060025f8973ffffffffffffffffffffffffffffffffffffffff1673ffffffffffffffffffffffffffffffffffffffff1681526020019081526020015f205f820151815f015f6101000a81548160ff0219169083151502179055506020820151815f0160016101000a81548160ff0219169083151502179055506040820151815f0160026101000a81548160ff0219169083600381111561392c5761392b614f76565b5b0217905550606082015181600101556080820151816002015560a0820151816003015560c0820151816004015560e0820151816005015f6101000a81548167ffffffffffffffff021916908367ffffffffffffffff16021790555061010082015181600601908161399d9190615ad5565b50905050600687908060018154018082558091505060019003905f5260205f20015f9091909190916101000a81548173ffffffffffffffffffffffffffffffffffffffff021916908373ffffffffffffffffffffffffffffffffffffffff1602179055508673ffffffffffffffffffffffffffffffffffffffff167f761f7745f0857947221c32f05ffe7a642236f91d515052cb3da0cea4830636838787848787604051613a4f959493929190615ba4565b60405180910390a250505050505050565b5f8054906101000a900473ffffffffffffffffffffffffffffffffffffffff1673ffffffffffffffffffffffffffffffffffffffff163373ffffffffffffffffffffffffffffffffffffffff1614613ae4576040517f30cd747100000000000000000000000000000000000000000000000000000000815260040160405180910390fd5b806007819055507f3ab06a07965d960859bcfcc0f0590e9aa961da06b90540e0cba148e13b4524b781604051613b1a9190614eb6565b60405180910390a150565b5f8054906101000a900473ffffffffffffffffffffffffffffffffffffffff1673ffffffffffffffffffffffffffffffffffffffff163373ffffffffffffffffffffffffffffffffffffffff1614613ba9576040517f30cd747100000000000000000000000000000000000000000000000000000000815260040160405180910390fd5b5f73ffffffffffffffffffffffffffffffffffffffff168173ffffffffffffffffffffffffffffffffffffffff1603613c0e576040517fc52a9bd300000000000000000000000000000000000000000000000000000000815260040160405180910390fd5b5f805f9054906101000a900473ffffffffffffffffffffffffffffffffffffffff169050815f806101000a81548173ffffffffffffffffffffffffffffffffffffffff021916908373ffffffffffffffffffffffffffffffffffffffff1602179055508173ffffffffffffffffffffffffffffffffffffffff168173ffffffffffffffffffffffffffffffffffffffff167f8934ce4adea8d9ce0d714d2c22b86790e41b7731c84b926fbbdc1d40ff6533c960405160405180910390a35050565b5f73ffffffffffffffffffffffffffffffffffffffff168173ffffffffffffffffffffffffffffffffffffffff1603613d34576040517fc52a9bd300000000000000000000000000000000000000000000000000000000815260040160405180910390fd5b5f60035f8373ffffffffffffffffffffffffffffffffffffffff1673ffffffffffffffffffffffffffffffffffffffff1681526020019081526020015f209050805f015f9054906101000a900460ff16613dba576040517ff0c16f1900000000000000000000000000000000000000000000000000000000815260040160405180910390fd5b3373ffffffffffffffffffffffffffffffffffffffff16815f0160019054906101000a900473ffffffffffffffffffffffffffffffffffffffff1673ffffffffffffffffffffffffffffffffffffffff1614613e42576040517f72da6fde00000000000000000000000000000000000000000000000000000000815260040160405180910390fd5b60025f3373ffffffffffffffffffffffffffffffffffffffff1673ffffffffffffffffffffffffffffffffffffffff1681526020019081526020015f205f015f9054906101000a900460ff1615613ec5576040517f430f177600000000000000000000000000000000000000000000000000000000815260040160405180910390fd5b5f60025f8473ffffffffffffffffffffffffffffffffffffffff1673ffffffffffffffffffffffffffffffffffffffff1681526020019081526020015f209050613f0e8161493e565b604051806101200160405280600115158152602001825f0160019054906101000a900460ff1615158152602001825f0160029054906101000a900460ff166003811115613f5e57613f5d614f76565b5b815260200182600101548152602001826002015481526020018260030154815260200182600401548152602001826005015f9054906101000a900467ffffffffffffffff1667ffffffffffffffff168152602001826006018054613fc190615692565b80601f0160208091040260200160405190810160405280929190818152602001828054613fed90615692565b80156140385780601f1061400f57610100808354040283529160200191614038565b820191905f5260205f20905b81548152906001019060200180831161401b57829003601f168201915b505050505081525060025f3373ffffffffffffffffffffffffffffffffffffffff1673ffffffffffffffffffffffffffffffffffffffff1681526020019081526020015f205f820151815f015f6101000a81548160ff0219169083151502179055506020820151815f0160016101000a81548160ff0219169083151502179055506040820151815f0160026101000a81548160ff021916908360038111156140e3576140e2614f76565b5b0217905550606082015181600101556080820151816002015560a0820151816003015560c0820151816004015560e0820151816005015f6101000a81548167ffffffffffffffff021916908367ffffffffffffffff1602179055506101008201518160060190816141549190615ad5565b5090505060025f8473ffffffffffffffffffffffffffffffffffffffff1673ffffffffffffffffffffffffffffffffffffffff1681526020019081526020015f205f8082015f6101000a81549060ff02191690555f820160016101000a81549060ff02191690555f820160026101000a81549060ff0219169055600182015f9055600282015f9055600382015f9055600482015f9055600582015f6101000a81549067ffffffffffffffff0219169055600682015f6142139190614e46565b505060035f8473ffffffffffffffffffffffffffffffffffffffff1673ffffffffffffffffffffffffffffffffffffffff1681526020019081526020015f205f8082015f6101000a81549060ff02191690555f820160016101000a81549073ffffffffffffffffffffffffffffffffffffffff021916905550505f60068054905090505f5b8181101561437a578473ffffffffffffffffffffffffffffffffffffffff16600682815481106142cb576142ca6156c2565b5b905f5260205f20015f9054906101000a900473ffffffffffffffffffffffffffffffffffffffff1673ffffffffffffffffffffffffffffffffffffffff160361436d573360068281548110614323576143226156c2565b5b905f5260205f20015f6101000a81548173ffffffffffffffffffffffffffffffffffffffff021916908373ffffffffffffffffffffffffffffffffffffffff16021790555061437a565b8080600101915050614298565b503373ffffffffffffffffffffffffffffffffffffffff168473ffffffffffffffffffffffffffffffffffffffff167f8e58716248449261135b3a7b20073d1b4f16376ae21806496b258e960931269360405160405180910390a350505050565b5f8060025f8573ffffffffffffffffffffffffffffffffffffffff1673ffffffffffffffffffffffffffffffffffffffff1681526020019081526020015f209050805f015f9054906101000a900460ff16614462576040517fc905160300000000000000000000000000000000000000000000000000000000815260040160405180910390fd5b61446b8161493e565b806003015491505f82036144ab576040517f65666d5600000000000000000000000000000000000000000000000000000000815260040160405180910390fd5b814710156144e5576040517f10162d2d00000000000000000000000000000000000000000000000000000000815260040160405180910390fd5b5f816003018190555081816004015f8282546145019190615632565b925050819055505f8373ffffffffffffffffffffffffffffffffffffffff168360405161452d90615a6a565b5f6040518083038185875af1925050503d805f8114614567576040519150601f19603f3d011682016040523d82523d5f602084013e61456c565b606091505b50509050806145a7576040517f90b8ec1800000000000000000000000000000000000000000000000000000000815260040160405180910390fd5b8373ffffffffffffffffffffffffffffffffffffffff168573ffffffffffffffffffffffffffffffffffffffff167ff7a40077ff7a04c7e61f6f26fb13774259ddf1b6bce9ecf26a8276cdd3992683856040516146049190614eb6565b60405180910390a35f60075411156147f1575f61461f610f41565b5090505f8111156147ef575f60068054905090505f4790505f5b828110156147eb575f60068281548110614656576146556156c2565b5b905f5260205f20015f9054906101000a900473ffffffffffffffffffffffffffffffffffffffff1690505f60025f8373ffffffffffffffffffffffffffffffffffffffff1673ffffffffffffffffffffffffffffffffffffffff1681526020019081526020015f209050805f0160019054906101000a900460ff166146dc5750506147de565b6003808111156146ef576146ee614f76565b5b815f0160029054906101000a900460ff16600381111561471257614711614f76565b5b0361471e5750506147de565b5f8160020154036147305750506147de565b5f81600201548260010154614745919061558e565b90505f8103614756575050506147de565b5f87828761476491906155be565b61476e919061558e565b90505f828261477d919061558e565b90506007548110156147d8578473ffffffffffffffffffffffffffffffffffffffff167f221439e032fc5fc029b6c13916b9ad14e21c32369ca17eec27c70a56f21391c4826040516147cf9190614eb6565b60405180910390a25b50505050505b8080600101915050614639565b5050505b505b505092915050565b5f80600381111561480d5761480c614f76565b5b8360038111156148205761481f614f76565b5b0361482f57610e109050614938565b6001600381111561484357614842614f76565b5b83600381111561485657614855614f76565b5b036148665762278d009050614938565b6002600381111561487a57614879614f76565b5b83600381111561488d5761488c614f76565b5b036148d3575f82036148cb576040517fc52a9bd300000000000000000000000000000000000000000000000000000000815260040160405180910390fd5b819050614938565b6003808111156148e6576148e5614f76565b5b8360038111156148f9576148f8614f76565b5b03614906575f9050614938565b6040517fc52a9bd300000000000000000000000000000000000000000000000000000000815260040160405180910390fd5b92915050565b805f0160019054906101000a900460ff1615614a7e5760038081111561496757614966614f76565b5b815f0160029054906101000a900460ff16600381111561498a57614989614f76565b5b0315614a7e575f81600201540315614a7e575f816005015f9054906101000a900467ffffffffffffffff1667ffffffffffffffff16426149ca91906155ff565b90505f8260020154826149dd919061558e565b90505f81036149ed575050614a7e565b8260010154816149fd91906155be565b836003015f828254614a0f9190615632565b92505081905550826002015481614a2691906155be565b836005015f9054906101000a900467ffffffffffffffff1667ffffffffffffffff16614a529190615632565b836005015f6101000a81548167ffffffffffffffff021916908367ffffffffffffffff16021790555050505b50565b8115614ccf575f8360020154118015614ace5750600380811115614aa857614aa7614f76565b5b835f0160029054906101000a900460ff166003811115614acb57614aca614f76565b5b14155b15614b5a575f836005015f9054906101000a900467ffffffffffffffff1667ffffffffffffffff1642614b0191906155ff565b90505f846002015482614b149190615a7e565b90505f811115614b57578460020154856001015482614b3391906155be565b614b3d919061558e565b856003015f828254614b4f9190615632565b925050819055505b50505b5f835f0160016101000a81548160ff02191690831515021790555042836005015f6101000a81548167ffffffffffffffff021916908367ffffffffffffffff16021790555060045f8573ffffffffffffffffffffffffffffffffffffffff1673ffffffffffffffffffffffffffffffffffffffff1681526020019081526020015f205f8082015f6101000a81549060ff02191690555f820160016101000a81549060ff0219169055600182015f9055600282015f9055600382015f6101000a81549060ff0219169055600482015f905550508015614c86578373ffffffffffffffffffffffffffffffffffffffff167f593ee421b74ecc9cf54c61db04c0ed101561f4b12b0f341cf43363df196514c36001604051614c79919061510d565b60405180910390a2614cca565b8373ffffffffffffffffffffffffffffffffffffffff167f064316ba045ee9fe1747167a9332758e4e0ed252bef810084892165f4853ccab60405160405180910390a25b614e40565b6001835f0160016101000a81548160ff02191690831515021790555042836005015f6101000a81548167ffffffffffffffff021916908367ffffffffffffffff16021790555060045f8573ffffffffffffffffffffffffffffffffffffffff1673ffffffffffffffffffffffffffffffffffffffff1681526020019081526020015f205f8082015f6101000a81549060ff02191690555f820160016101000a81549060ff0219169055600182015f9055600282015f9055600382015f6101000a81549060ff0219169055600482015f905550508015614dfb578373ffffffffffffffffffffffffffffffffffffffff167f593ee421b74ecc9cf54c61db04c0ed101561f4b12b0f341cf43363df196514c35f604051614dee919061510d565b60405180910390a2614e3f565b8373ffffffffffffffffffffffffffffffffffffffff167fbe0f4150901071da3195b17e2a5aa0acfc1ed4b4c2720ab9d1481f81187f2f2760405160405180910390a25b5b50505050565b508054614e5290615692565b5f825580601f10614e635750614e80565b601f0160209004905f5260205f2090810190614e7f9190614e83565b5b50565b5b80821115614e9a575f815f905550600101614e84565b5090565b5f819050919050565b614eb081614e9e565b82525050565b5f602082019050614ec95f830184614ea7565b92915050565b5f80fd5b5f80fd5b5f73ffffffffffffffffffffffffffffffffffffffff82169050919050565b5f614f0082614ed7565b9050919050565b614f1081614ef6565b8114614f1a575f80fd5b50565b5f81359050614f2b81614f07565b92915050565b5f60208284031215614f4657614f45614ecf565b5b5f614f5384828501614f1d565b91505092915050565b5f8115159050919050565b614f7081614f5c565b82525050565b7f4e487b71000000000000000000000000000000000000000000000000000000005f52602160045260245ffd5b60048110614fb457614fb3614f76565b5b50565b5f819050614fc482614fa3565b919050565b5f614fd382614fb7565b9050919050565b614fe381614fc9565b82525050565b5f67ffffffffffffffff82169050919050565b61500581614fe9565b82525050565b5f81519050919050565b5f82825260208201905092915050565b8281835e5f83830152505050565b5f601f19601f8301169050919050565b5f61504d8261500b565b6150578185615015565b9350615067818560208601615025565b61507081615033565b840191505092915050565b5f6101208201905061508f5f83018c614f67565b61509c602083018b614f67565b6150a9604083018a614fda565b6150b66060830189614ea7565b6150c36080830188614ea7565b6150d060a0830187614ea7565b6150dd60c0830186614ea7565b6150ea60e0830185614ffc565b8181036101008301526150fd8184615043565b90509a9950505050505050505050565b5f6020820190506151205f830184614f67565b92915050565b61512f81614f5c565b8114615139575f80fd5b50565b5f8135905061514a81615126565b92915050565b5f806040838503121561516657615165614ecf565b5b5f61517385828601614f1d565b92505060206151848582860161513c565b9150509250929050565b61519781614e9e565b81146151a1575f80fd5b50565b5f813590506151b28161518e565b92915050565b5f602082840312156151cd576151cc614ecf565b5b5f6151da848285016151a4565b91505092915050565b6151ec81614ef6565b82525050565b5f6020820190506152055f8301846151e3565b92915050565b5f60408201905061521e5f830185614ea7565b61522b6020830184614ea7565b9392505050565b6004811061523e575f80fd5b50565b5f8135905061524f81615232565b92915050565b5f805f805f60a0868803121561526e5761526d614ecf565b5b5f61527b88828901614f1d565b955050602061528c88828901615241565b945050604061529d888289016151a4565b93505060606152ae888289016151a4565b92505060806152bf8882890161513c565b9150509295509295909350565b5f80fd5b5f80fd5b5f80fd5b5f8083601f8401126152ed576152ec6152cc565b5b8235905067ffffffffffffffff81111561530a576153096152d0565b5b602083019150836001820283011115615326576153256152d4565b5b9250929050565b5f805f6040848603121561534457615343614ecf565b5b5f61535186828701614f1d565b935050602084013567ffffffffffffffff81111561537257615371614ed3565b5b61537e868287016152d8565b92509250509250925092565b5f80604083850312156153a05761539f614ecf565b5b5f6153ad85828601614f1d565b92505060206153be858286016151a4565b9150509250929050565b5f6040820190506153db5f830185614f67565b6153e860208301846151e3565b9392505050565b5f805f6060848603121561540657615405614ecf565b5b5f61541386828701614f1d565b935050602061542486828701615241565b9250506040615435868287016151a4565b9150509250925092565b5f60c0820190506154525f830189614f67565b61545f6020830188614fda565b61546c6040830187614ea7565b6154796060830186614ea7565b6154866080830185614f67565b61549360a0830184614ea7565b979650505050505050565b5f805f805f8060a087890312156154b8576154b7614ecf565b5b5f6154c589828a01614f1d565b96505060206154d689828a01615241565b95505060406154e789828a016151a4565b94505060606154f889828a016151a4565b935050608087013567ffffffffffffffff81111561551957615518614ed3565b5b61552589828a016152d8565b92509250509295509295509295565b7f4e487b71000000000000000000000000000000000000000000000000000000005f52601260045260245ffd5b7f4e487b71000000000000000000000000000000000000000000000000000000005f52601160045260245ffd5b5f61559882614e9e565b91506155a383614e9e565b9250826155b3576155b2615534565b5b828204905092915050565b5f6155c882614e9e565b91506155d383614e9e565b92508282026155e181614e9e565b915082820484148315176155f8576155f7615561565b5b5092915050565b5f61560982614e9e565b915061561483614e9e565b925082820390508181111561562c5761562b615561565b5b92915050565b5f61563c82614e9e565b915061564783614e9e565b925082820190508082111561565f5761565e615561565b5b92915050565b7f4e487b71000000000000000000000000000000000000000000000000000000005f52602260045260245ffd5b5f60028204905060018216806156a957607f821691505b6020821081036156bc576156bb615665565b5b50919050565b7f4e487b71000000000000000000000000000000000000000000000000000000005f52603260045260245ffd5b5f60a0820190506157025f830188614fda565b61570f6020830187614ea7565b61571c6040830186614ea7565b6157296060830185614f67565b6157366080830184614ea7565b9695505050505050565b5f82905092915050565b7f4e487b71000000000000000000000000000000000000000000000000000000005f52604160045260245ffd5b5f819050815f5260205f209050919050565b5f6020601f8301049050919050565b5f82821b905092915050565b5f600883026157d37fffffffffffffffffffffffffffffffffffffffffffffffffffffffffffffffff82615798565b6157dd8683615798565b95508019841693508086168417925050509392505050565b5f819050919050565b5f61581861581361580e84614e9e565b6157f5565b614e9e565b9050919050565b5f819050919050565b615831836157fe565b61584561583d8261581f565b8484546157a4565b825550505050565b5f90565b61585961584d565b615864818484615828565b505050565b5b818110156158875761587c5f82615851565b60018101905061586a565b5050565b601f8211156158cc5761589d81615777565b6158a684615789565b810160208510156158b5578190505b6158c96158c185615789565b830182615869565b50505b505050565b5f82821c905092915050565b5f6158ec5f19846008026158d1565b1980831691505092915050565b5f61590483836158dd565b9150826002028217905092915050565b61591e8383615740565b67ffffffffffffffff8111156159375761593661574a565b5b6159418254615692565b61594c82828561588b565b5f601f831160018114615979575f8415615967578287013590505b61597185826158f9565b8655506159d8565b601f19841661598786615777565b5f5b828110156159ae57848901358255600182019150602085019450602081019050615989565b868310156159cb57848901356159c7601f8916826158dd565b8355505b6001600288020188555050505b50505050505050565b828183375f83830152505050565b5f6159fa8385615015565b9350615a078385846159e1565b615a1083615033565b840190509392505050565b5f6020820190508181035f830152615a348184866159ef565b90509392505050565b5f81905092915050565b50565b5f615a555f83615a3d565b9150615a6082615a47565b5f82019050919050565b5f615a7482615a4a565b9150819050919050565b5f615a8882614e9e565b9150615a9383614e9e565b925082615aa357615aa2615534565b5b828206905092915050565b5f604082019050615ac15f830185614fda565b615ace6020830184614ea7565b9392505050565b615ade8261500b565b67ffffffffffffffff811115615af757615af661574a565b5b615b018254615692565b615b0c82828561588b565b5f60209050601f831160018114615b3d575f8415615b2b578287015190505b615b3585826158f9565b865550615b9c565b601f198416615b4b86615777565b5f5b82811015615b7257848901518255600182019150602085019450602081019050615b4d565b86831015615b8f5784890151615b8b601f8916826158dd565b8355505b6001600288020188555050505b505050505050565b5f608082019050615bb75f830188614fda565b615bc46020830187614ea7565b615bd16040830186614ea7565b8181036060830152615be48184866159ef565b9050969550505050505056fea2646970667358221220da2742afda7aef6386b629621b118c88a15355cbe7c9af9d83e1bd734fb2310564736f6c634300081a0033",
    "linkReferences": {}
  },
  "methodIdentifiers": {
    "acceptMigration(address)": "f817b594",
    "acceptTerms()": "815af908",
    "addWorker(address,uint8,uint256,uint256,string)": "ca8adcea",
    "admins(address)": "429b62e5",
    "cancelMigration()": "10639ea0",
    "cancelProposal(address)": "af8df99d",
    "claim()": "4e71d92d",
    "claimTo(address)": "a262f5f8",
    "claimable(address)": "402914f5",
    "defaultProposalWindow()": "734bacc5",
    "expireProposal(address)": "97feb103",
    "fundTreasury()": "b9c18685",
    "grantTriggerPayment(address,uint256)": "a2b2deac",
    "lowTreasuryThresholdSeconds()": "373bfeae",
    "owner()": "8da5cb5b",
    "pendingMigrations(address)": "a104a1ee",
    "pendingTerms(address)": "b824f73a",
    "proposeMigration(address)": "86215a3d",
    "proposeTerms(address,uint8,uint256,uint256,bool)": "555c2699",
    "rejectTerms()": "65b509e1",
    "setAdmin(address,bool)": "4b0bddd2",
    "setLowTreasuryThreshold(uint256)": "e66a6b92",
    "setProposalWindow(uint256)": "95f32a8a",
    "setWorkerStatus(address,bool)": "566a4ce8",
    "transferOwnership(address)": "f2fde38b",
    "treasuryRunway()": "550070d4",
    "updateWorkerInterval(address,uint8,uint256)": "a6360675",
    "updateWorkerMetadata(address,string)": "5fd296da",
    "updateWorkerRate(address,uint256)": "b3747a51",
    "withdrawExcess(address,uint256)": "6e90013d",
    "workerList(uint256)": "4d432c1d",
    "workerRunway(address)": "22e9588a",
    "workers(address)": "4048a257"
  },
  "id": 19
}