{"abi":[{"type":"constructor","inputs":[],"stateMutability":"nonpayable"},{"type":"receive","stateMutability":"payable"},{"type":"function","name":"acceptMigration","inputs":[{"name":"oldAddress","type":"address","internalType":"address"}],"outputs":[],"stateMutability":"nonpayable"},{"type":"function","name":"acceptTerms","inputs":[],"outputs":[],"stateMutability":"nonpayable"},{"type":"function","name":"addWorker","inputs":[{"name":"workerAddr","type":"address","internalType":"address"},{"name":"timeline","type":"uint8","internalType":"enum StreamWagePayroll.Timeline"},{"name":"amountPerIntervalWei","type":"uint256","internalType":"uint256"},{"name":"customIntervalSeconds","type":"uint256","internalType":"uint256"},{"name":"metadata","type":"string","internalType":"string"}],"outputs":[],"stateMutability":"nonpayable"},{"type":"function","name":"admins","inputs":[{"name":"","type":"address","internalType":"address"}],"outputs":[{"name":"","type":"bool","internalType":"bool"}],"stateMutability":"view"},{"type":"function","name":"cancelMigration","inputs":[],"outputs":[],"stateMutability":"nonpayable"},{"type":"function","name":"cancelProposal","inputs":[{"name":"workerAddr","type":"address","internalType":"address"}],"outputs":[],"stateMutability":"nonpayable"},{"type":"function","name":"claim","inputs":[],"outputs":[{"name":"claimedAmount","type":"uint256","internalType":"uint256"}],"stateMutability":"nonpayable"},{"type":"function","name":"claimTo","inputs":[{"name":"recipient","type":"address","internalType":"address"}],"outputs":[{"name":"claimedAmount","type":"uint256","internalType":"uint256"}],"stateMutability":"nonpayable"},{"type":"function","name":"claimable","inputs":[{"name":"workerAddr","type":"address","internalType":"address"}],"outputs":[{"name":"","type":"uint256","internalType":"uint256"}],"stateMutability":"view"},{"type":"function","name":"defaultProposalWindow","inputs":[],"outputs":[{"name":"","type":"uint256","internalType":"uint256"}],"stateMutability":"view"},{"type":"function","name":"expireProposal","inputs":[{"name":"workerAddr","type":"address","internalType":"address"}],"outputs":[],"stateMutability":"nonpayable"},{"type":"function","name":"fundTreasury","inputs":[],"outputs":[],"stateMutability":"payable"},{"type":"function","name":"grantTriggerPayment","inputs":[{"name":"workerAddr","type":"address","internalType":"address"},{"name":"amountWei","type":"uint256","internalType":"uint256"}],"outputs":[],"stateMutability":"nonpayable"},{"type":"function","name":"initialize","inputs":[{"name":"initialOwner","type":"address","internalType":"address"}],"outputs":[],"stateMutability":"nonpayable"},{"type":"function","name":"lowTreasuryThresholdSeconds","inputs":[],"outputs":[{"name":"","type":"uint256","internalType":"uint256"}],"stateMutability":"view"},{"type":"function","name":"owner","inputs":[],"outputs":[{"name":"","type":"address","internalType":"address"}],"stateMutability":"view"},{"type":"function","name":"pendingMigrations","inputs":[{"name":"","type":"address","internalType":"address"}],"outputs":[{"name":"exists","type":"bool","internalType":"bool"},{"name":"newAddress","type":"address","internalType":"address"}],"stateMutability":"view"},{"type":"function","name":"pendingTerms","inputs":[{"name":"","type":"address","internalType":"address"}],"outputs":[{"name":"exists","type":"bool","internalType":"bool"},{"name":"timeline","type":"uint8","internalType":"enum StreamWagePayroll.Timeline"},{"name":"amountPerIntervalWei","type":"uint256","internalType":"uint256"},{"name":"intervalSeconds","type":"uint256","internalType":"uint256"},{"name":"terminateOnReject","type":"bool","internalType":"bool"},{"name":"expiryTimestamp","type":"uint256","internalType":"uint256"}],"stateMutability":"view"},{"type":"function","name":"proposeMigration","inputs":[{"name":"newAddress","type":"address","internalType":"address"}],"outputs":[],"stateMutability":"nonpayable"},{"type":"function","name":"proposeTerms","inputs":[{"name":"workerAddr","type":"address","internalType":"address"},{"name":"timeline","type":"uint8","internalType":"enum StreamWagePayroll.Timeline"},{"name":"amountPerIntervalWei","type":"uint256","internalType":"uint256"},{"name":"customIntervalSeconds","type":"uint256","internalType":"uint256"},{"name":"terminateOnReject","type":"bool","internalType":"bool"},{"name":"proposalNote","type":"string","internalType":"string"}],"outputs":[],"stateMutability":"nonpayable"},{"type":"function","name":"rejectTerms","inputs":[],"outputs":[],"stateMutability":"nonpayable"},{"type":"function","name":"setAdmin","inputs":[{"name":"admin","type":"address","internalType":"address"},{"name":"enabled","type":"bool","internalType":"bool"}],"outputs":[],"stateMutability":"nonpayable"},{"type":"function","name":"setLowTreasuryThreshold","inputs":[{"name":"thresholdSeconds","type":"uint256","internalType":"uint256"}],"outputs":[],"stateMutability":"nonpayable"},{"type":"function","name":"setProposalWindow","inputs":[{"name":"durationSeconds","type":"uint256","internalType":"uint256"}],"outputs":[],"stateMutability":"nonpayable"},{"type":"function","name":"setWorkerStatus","inputs":[{"name":"workerAddr","type":"address","internalType":"address"},{"name":"active","type":"bool","internalType":"bool"}],"outputs":[],"stateMutability":"nonpayable"},{"type":"function","name":"transferOwnership","inputs":[{"name":"newOwner","type":"address","internalType":"address"}],"outputs":[],"stateMutability":"nonpayable"},{"type":"function","name":"treasuryRunway","inputs":[],"outputs":[{"name":"totalRatePerSecond","type":"uint256","internalType":"uint256"},{"name":"estimatedRunwaySeconds","type":"uint256","internalType":"uint256"}],"stateMutability":"view"},{"type":"function","name":"updateWorkerInterval","inputs":[{"name":"workerAddr","type":"address","internalType":"address"},{"name":"timeline","type":"uint8","internalType":"enum StreamWagePayroll.Timeline"},{"name":"customIntervalSeconds","type":"uint256","internalType":"uint256"}],"outputs":[],"stateMutability":"nonpayable"},{"type":"function","name":"updateWorkerMetadata","inputs":[{"name":"workerAddr","type":"address","internalType":"address"},{"name":"metadata","type":"string","internalType":"string"}],"outputs":[],"stateMutability":"nonpayable"},{"type":"function","name":"updateWorkerRate","inputs":[{"name":"workerAddr","type":"address","internalType":"address"},{"name":"amountPerIntervalWei","type":"uint256","internalType":"uint256"}],"outputs":[],"stateMutability":"nonpayable"},{"type":"function","name":"withdrawExcess","inputs":[{"name":"recipient","type":"address","internalType":"address"},{"name":"amountWei","type":"uint256","internalType":"uint256"}],"outputs":[],"stateMutability":"nonpayable"},{"type":"function","name":"workerList","inputs":[{"name":"","type":"uint256","internalType":"uint256"}],"outputs":[{"name":"","type":"address","internalType":"address"}],"stateMutability":"view"},{"type":"function","name":"workerRunway","inputs":[{"name":"workerAddr","type":"address","internalType":"address"}],"outputs":[{"name":"estimatedRunwaySeconds","type":"uint256","internalType":"uint256"}],"stateMutability":"view"},{"type":"function","name":"workers","inputs":[{"name":"","type":"address","internalType":"address"}],"outputs":[{"name":"exists","type":"bool","internalType":"bool"},{"name":"active","type":"bool","internalType":"bool"},{"name":"timeline","type":"uint8","internalType":"enum StreamWagePayroll.Timeline"},{"name":"amountPerIntervalWei","type":"uint256","internalType":"uint256"},{"name":"intervalSeconds","type":"uint256","internalType":"uint256"},{"name":"accruedWei","type":"uint256","internalType":"uint256"},{"name":"totalClaimedWei","type":"uint256","internalType":"uint256"},{"name":"lastAccruedAt","type":"uint64","internalType":"uint64"},{"name":"metadata","type":"string","internalType":"string"}],"stateMutability":"view"},{"type":"event","name":"AdminUpdated","inputs":[{"name":"admin","type":"address","indexed":true,"internalType":"address"},{"name":"enabled","type":"bool","indexed":false,"internalType":"bool"}],"anonymous":false},{"type":"event","name":"Claimed","inputs":[{"name":"worker","type":"address","indexed":true,"internalType":"address"},{"name":"recipient","type":"address","indexed":true,"internalType":"address"},{"name":"amount","type":"uint256","indexed":false,"internalType":"uint256"}],"anonymous":false},{"type":"event","name":"ExcessWithdrawn","inputs":[{"name":"recipient","type":"address","indexed":true,"internalType":"address"},{"name":"amountWei","type":"uint256","indexed":false,"internalType":"uint256"},{"name":"remainingBalance","type":"uint256","indexed":false,"internalType":"uint256"}],"anonymous":false},{"type":"event","name":"Initialized","inputs":[{"name":"version","type":"uint64","indexed":false,"internalType":"uint64"}],"anonymous":false},{"type":"event","name":"LowTreasury","inputs":[{"name":"worker","type":"address","indexed":true,"internalType":"address"},{"name":"estimatedRunwaySeconds","type":"uint256","indexed":false,"internalType":"uint256"}],"anonymous":false},{"type":"event","name":"LowTreasuryThresholdUpdated","inputs":[{"name":"newThresholdSeconds","type":"uint256","indexed":false,"internalType":"uint256"}],"anonymous":false},{"type":"event","name":"MigrationCancelled","inputs":[{"name":"oldAddress","type":"address","indexed":true,"internalType":"address"},{"name":"newAddress","type":"address","indexed":true,"internalType":"address"}],"anonymous":false},{"type":"event","name":"MigrationCompleted","inputs":[{"name":"oldAddress","type":"address","indexed":true,"internalType":"address"},{"name":"newAddress","type":"address","indexed":true,"internalType":"address"}],"anonymous":false},{"type":"event","name":"MigrationProposed","inputs":[{"name":"oldAddress","type":"address","indexed":true,"internalType":"address"},{"name":"newAddress","type":"address","indexed":true,"internalType":"address"}],"anonymous":false},{"type":"event","name":"OwnerTransferred","inputs":[{"name":"previousOwner","type":"address","indexed":true,"internalType":"address"},{"name":"newOwner","type":"address","indexed":true,"internalType":"address"}],"anonymous":false},{"type":"event","name":"ProposalCancelled","inputs":[{"name":"worker","type":"address","indexed":true,"internalType":"address"}],"anonymous":false},{"type":"event","name":"ProposalExpired","inputs":[{"name":"worker","type":"address","indexed":true,"internalType":"address"},{"name":"terminated","type":"bool","indexed":false,"internalType":"bool"}],"anonymous":false},{"type":"event","name":"ProposalWindowUpdated","inputs":[{"name":"newWindowSeconds","type":"uint256","indexed":false,"internalType":"uint256"}],"anonymous":false},{"type":"event","name":"TermsAccepted","inputs":[{"name":"worker","type":"address","indexed":true,"internalType":"address"}],"anonymous":false},{"type":"event","name":"TermsProposed","inputs":[{"name":"worker","type":"address","indexed":true,"internalType":"address"},{"name":"timeline","type":"uint8","indexed":false,"internalType":"enum StreamWagePayroll.Timeline"},{"name":"amountPerIntervalWei","type":"uint256","indexed":false,"internalType":"uint256"},{"name":"intervalSeconds","type":"uint256","indexed":false,"internalType":"uint256"},{"name":"terminateOnReject","type":"bool","indexed":false,"internalType":"bool"},{"name":"expiryTimestamp","type":"uint256","indexed":false,"internalType":"uint256"},{"name":"proposalNote","type":"string","indexed":false,"internalType":"string"}],"anonymous":false},{"type":"event","name":"TermsRejected","inputs":[{"name":"worker","type":"address","indexed":true,"internalType":"address"}],"anonymous":false},{"type":"event","name":"TreasuryFunded","inputs":[{"name":"from","type":"address","indexed":true,"internalType":"address"},{"name":"amount","type":"uint256","indexed":false,"internalType":"uint256"}],"anonymous":false},{"type":"event","name":"TriggerPaymentGranted","inputs":[{"name":"worker","type":"address","indexed":true,"internalType":"address"},{"name":"amount","type":"uint256","indexed":false,"internalType":"uint256"}],"anonymous":false},{"type":"event","name":"WorkerAdded","inputs":[{"name":"worker","type":"address","indexed":true,"internalType":"address"},{"name":"timeline","type":"uint8","indexed":false,"internalType":"enum StreamWagePayroll.Timeline"},{"name":"amountPerIntervalWei","type":"uint256","indexed":false,"internalType":"uint256"},{"name":"intervalSeconds","type":"uint256","indexed":false,"internalType":"uint256"},{"name":"metadata","type":"string","indexed":false,"internalType":"string"}],"anonymous":false},{"type":"event","name":"WorkerIntervalUpdated","inputs":[{"name":"worker","type":"address","indexed":true,"internalType":"address"},{"name":"timeline","type":"uint8","indexed":false,"internalType":"enum StreamWagePayroll.Timeline"},{"name":"intervalSeconds","type":"uint256","indexed":false,"internalType":"uint256"}],"anonymous":false},{"type":"event","name":"WorkerMetadataUpdated","inputs":[{"name":"worker","type":"address","indexed":true,"internalType":"address"},{"name":"metadata","type":"string","indexed":false,"internalType":"string"}],"anonymous":false},{"type":"event","name":"WorkerRateUpdated","inputs":[{"name":"worker","type":"address","indexed":true,"internalType":"address"},{"name":"amountPerIntervalWei","type":"uint256","indexed":false,"internalType":"uint256"}],"anonymous":false},{"type":"event","name":"WorkerStatusUpdated","inputs":[{"name":"worker","type":"address","indexed":true,"internalType":"address"},{"name":"active","type":"bool","indexed":false,"internalType":"bool"}],"anonymous":false},{"type":"event","name":"WorkerTerminated","inputs":[{"name":"worker","type":"address","indexed":true,"internalType":"address"}],"anonymous":false},{"type":"error","name":"InsufficientTreasury","inputs":[]},{"type":"error","name":"InvalidAmount","inputs":[]},{"type":"error","name":"InvalidConfiguration","inputs":[]},{"type":"error","name":"InvalidInitialization","inputs":[]},{"type":"error","name":"InvalidWorker","inputs":[]},{"type":"error","name":"MigrationAlreadyPending","inputs":[]},{"type":"error","name":"NoClaimableBalance","inputs":[]},{"type":"error","name":"NoPendingMigration","inputs":[]},{"type":"error","name":"NoPendingProposal","inputs":[]},{"type":"error","name":"NotInitializing","inputs":[]},{"type":"error","name":"NotMigrationRecipient","inputs":[]},{"type":"error","name":"NotOperator","inputs":[]},{"type":"error","name":"NotOwner","inputs":[]},{"type":"error","name":"ProposalAlreadyPending","inputs":[]},{"type":"error","name":"ProposalExpiredError","inputs":[]},{"type":"error","name":"ProposalNotExpired","inputs":[]},{"type":"error","name":"TransferFailed","inputs":[]},{"type":"error","name":"WithdrawalExceedsSafeLimit","inputs":[]},{"type":"error","name":"WorkerAlreadyExists","inputs":[]}],"bytecode":{"object":"0x608060405262093a8060055562093a80600755348015601c575f5ffd5b5060236027565b60d7565b7ff0c57e16840df040f15088dc2f81fe391c3923bec73e23a9662efc9c229c6a00805468010000000000000000900460ff161560765760405163f92ee8a960e01b815260040160405180910390fd5b80546001600160401b039081161460d45780546001600160401b0319166001600160401b0390811782556040519081527fc7f505b2f371ae2175ee4913f4499e1f2633a7b5936321eed1cdaeb6115181d29060200160405180910390a15b50565b6135a2806100e45f395ff3fe6080604052600436106101f4575f3560e01c80638da5cb5b11610108578063af8df99d1161009d578063c4d66de81161006d578063c4d66de814610652578063ca8adcea14610671578063e66a6b9214610690578063f2fde38b146106af578063f817b594146106ce575f5ffd5b8063af8df99d146105a3578063b3747a51146105c2578063b824f73a146105e1578063b9c186851461064a575f5ffd5b8063a262f5f8116100d8578063a262f5f814610527578063a2b2deac14610546578063a636067514610565578063a9624f2b14610584575f5ffd5b80638da5cb5b1461046e57806395f32a8a1461048c57806397feb103146104ab578063a104a1ee146104ca575f5ffd5b80634e71d92d1161018957806365b509e11161015957806365b509e1146103f35780636e90013d14610407578063734bacc514610426578063815af9081461043b57806386215a3d1461044f575f5ffd5b80634e71d92d14610378578063550070d41461038c578063566a4ce8146103b55780635fd296da146103d4575f5ffd5b80634048a257116101c45780634048a257146102b0578063429b62e5146102e45780634b0bddd2146103225780634d432c1d14610341575f5ffd5b806310639ea01461023457806322e9588a1461024a578063373bfeae1461027c578063402914f514610291575f5ffd5b366102305760405134815233907fda1785fe1dec267c363b06ae3e02c3e086123f9d611399f7a1cc98492518372e9060200160405180910390a2005b5f5ffd5b34801561023f575f5ffd5b506102486106ed565b005b348015610255575f5ffd5b50610269610264366004612e81565b610777565b6040519081526020015b60405180910390f35b348015610287575f5ffd5b5061026960075481565b34801561029c575f5ffd5b506102696102ab366004612e81565b610865565b3480156102bb575f5ffd5b506102cf6102ca366004612e81565b61093a565b60405161027399989796959493929190612ed5565b3480156102ef575f5ffd5b506103126102fe366004612e81565b60016020525f908152604090205460ff1681565b6040519015158152602001610273565b34801561032d575f5ffd5b5061024861033c366004612f6b565b610a1e565b34801561034c575f5ffd5b5061036061035b366004612f9c565b610acd565b6040516001600160a01b039091168152602001610273565b348015610383575f5ffd5b50610269610af5565b348015610397575f5ffd5b506103a0610b05565b60408051928352602083019190915201610273565b3480156103c0575f5ffd5b506102486103cf366004612f6b565b610c1f565b3480156103df575f5ffd5b506102486103ee366004612ff7565b610d07565b3480156103fe575f5ffd5b50610248610de0565b348015610412575f5ffd5b50610248610421366004613045565b610e7f565b348015610431575f5ffd5b5061026960055481565b348015610446575f5ffd5b506102486110f6565b34801561045a575f5ffd5b50610248610469366004612e81565b611251565b348015610479575f5ffd5b505f54610360906001600160a01b031681565b348015610497575f5ffd5b506102486104a6366004612f9c565b6113c8565b3480156104b6575f5ffd5b506102486104c5366004612e81565b61146b565b3480156104d5575f5ffd5b506105086104e4366004612e81565b60036020525f908152604090205460ff81169061010090046001600160a01b031682565b6040805192151583526001600160a01b03909116602083015201610273565b348015610532575f5ffd5b50610269610541366004612e81565b61151c565b348015610551575f5ffd5b50610248610560366004613045565b611554565b348015610570575f5ffd5b5061024861057f36600461307b565b6116aa565b34801561058f575f5ffd5b5061024861059e3660046130b5565b6117e7565b3480156105ae575f5ffd5b506102486105bd366004612e81565b611a4b565b3480156105cd575f5ffd5b506102486105dc366004613045565b611b9e565b3480156105ec575f5ffd5b506106386105fb366004612e81565b600460208190525f91825260409091208054600182015460028301546003840154939094015460ff80841695610100909404811694929392169086565b60405161027396959493929190613137565b610248611cb1565b34801561065d575f5ffd5b5061024861066c366004612e81565b611d4f565b34801561067c575f5ffd5b5061024861068b366004613171565b611eab565b34801561069b575f5ffd5b506102486106aa366004612f9c565b612185565b3480156106ba575f5ffd5b506102486106c9366004612e81565b6121e4565b3480156106d9575f5ffd5b506102486106e8366004612e81565b612284565b335f908152600360205260409020805460ff1661071d5760405163f0c16f1960e01b815260040160405180910390fd5b8054335f8181526003602052604080822080546001600160a81b0319169055516101009093046001600160a01b0316928392917f91c6a7a3addeee139ab5f1b2591add7e2d7f94938c3d190bdbfc50d1e4d922d291a35050565b6001600160a01b0381165f908152600260205260408120805460ff1661079f57505f92915050565b8054610100900460ff166107b557505f92915050565b6003815462010000900460ff1660038111156107d3576107d3612ea1565b036107e057505f92915050565b80600201545f036107f357505f92915050565b5f6107fc610b05565b509050805f0361081057505f199392505050565b5f82600201548360010154610825919061320b565b9050805f0361083957505f19949350505050565b5f82610845834761321e565b61084f919061320b565b905061085b828261320b565b9695505050505050565b6001600160a01b0381165f908152600260205260408120805460ff1661088d57505f92915050565b60038101548154610100900460ff1615806108c357506003825462010000900460ff1660038111156108c1576108c1612ea1565b145b156108cf579392505050565b81600201545f036108e1579392505050565b60058201545f906108fb906001600160401b031642613235565b90505f83600201548261090e919061320b565b9050805f03610921575090949350505050565b6001840154610930908261321e565b61085b9084613248565b600260208190525f9182526040909120805460018201549282015460038301546004840154600585015460068601805460ff808816996101008904821699620100009099049091169790969594936001600160401b031692909161099d9061325b565b80601f01602080910402602001604051908101604052809291908181526020018280546109c99061325b565b8015610a145780601f106109eb57610100808354040283529160200191610a14565b820191905f5260205f20905b8154815290600101906020018083116109f757829003601f168201915b5050505050905089565b5f546001600160a01b03163314610a48576040516330cd747160e01b815260040160405180910390fd5b6001600160a01b038216610a6f5760405163c52a9bd360e01b815260040160405180910390fd5b6001600160a01b0382165f81815260016020908152604091829020805460ff191685151590811790915591519182527f235bc17e7930760029e9f4d860a2a8089976de5b381cf8380fc11c1d88a11133910160405180910390a25050565b60068181548110610adc575f80fd5b5f918252602090912001546001600160a01b0316905081565b5f610b003333612690565b905090565b6006545f90819081805b82811015610bde575f60025f60068481548110610b2e57610b2e613293565b5f9182526020808320909101546001600160a01b0316835282019290925260400190206003810154909150610b639084613248565b8154909350610100900460ff16610b7a5750610bd6565b6003815462010000900460ff166003811115610b9857610b98612ea1565b03610ba35750610bd6565b80600201545f03610bb45750610bd6565b80600201548160010154610bc8919061320b565b610bd29087613248565b9550505b600101610b0f565b50835f03610bf257505f935f199350915050565b5f814711610c00575f610c0a565b610c0a8247613235565b9050610c16858261320b565b93505050509091565b5f546001600160a01b03163314801590610c485750335f9081526001602052604090205460ff16155b15610c6657604051631f0853c160e21b815260040160405180910390fd5b6001600160a01b0382165f908152600260205260409020805460ff16610c9f5760405163c905160360e01b815260040160405180910390fd5b81610cad57610cad81612987565b805461ff0019166101008315159081029190911782556040519081526001600160a01b038416907f95a1c11e859a826e8aabaf69fc3e207ad8e75a1ef162ec3bd876fda45799a889906020015b60405180910390a2505050565b5f546001600160a01b03163314801590610d305750335f9081526001602052604090205460ff16155b15610d4e57604051631f0853c160e21b815260040160405180910390fd5b6001600160a01b0383165f908152600260205260409020805460ff16610d875760405163c905160360e01b815260040160405180910390fd5b60068101610d96838583613309565b50836001600160a01b03167fee27f435fe33c29502f62b8ceb9792675ba9f628619d2062ab5d4ca3269c1e008484604051610dd29291906133eb565b60405180910390a250505050565b335f908152600260205260409020805460ff16610e105760405163c905160360e01b815260040160405180910390fd5b335f908152600460205260409020805460ff16610e40576040516358b89db560e11b815260040160405180910390fd5b8060040154421115610e6557604051635038740760e01b815260040160405180910390fd5b6003810154610e7b903390849060ff165f612a65565b5050565b5f546001600160a01b03163314801590610ea85750335f9081526001602052604090205460ff16155b15610ec657604051631f0853c160e21b815260040160405180910390fd5b6001600160a01b038216610eed5760405163c52a9bd360e01b815260040160405180910390fd5b805f03610f0d5760405163162908e360e11b815260040160405180910390fd5b6006545f805b82811015610fda575f60025f60068481548110610f3257610f32613293565b5f9182526020808320909101546001600160a01b031683528201929092526040019020805490915060ff61010090910416610f6d5750610fd2565b6003815462010000900460ff166003811115610f8b57610f8b612ea1565b03610f965750610fd2565b80600201545f03610fa75750610fd2565b610fb081612987565b80600201548160010154610fc4919061320b565b610fce9084613248565b9250505b600101610f13565b505f610fe882610e1061321e565b90508047101561100b57604051631581965160e11b815260040160405180910390fd5b5f6110168247613235565b90508085111561103957604051631581965160e11b815260040160405180910390fd5b5f866001600160a01b0316866040515f6040518083038185875af1925050503d805f8114611082576040519150601f19603f3d011682016040523d82523d5f602084013e611087565b606091505b50509050806110a9576040516312171d8360e31b815260040160405180910390fd5b604080518781524760208201526001600160a01b038916917f992f462cfb62e164bd03bf07baf2cffce83fbd9370cae10635842b202001212091015b60405180910390a250505050505050565b335f908152600260205260409020805460ff166111265760405163c905160360e01b815260040160405180910390fd5b335f908152600460205260409020805460ff16611156576040516358b89db560e11b815260040160405180910390fd5b806004015442111561117b57604051635038740760e01b815260040160405180910390fd5b8054825461010090910460ff1690839062ff00001916620100008360038111156111a7576111a7612ea1565b02179055506001808201548382015560028083015481850155835461ff0019166101001784556005840180546001600160401b03421667ffffffffffffffff19909116179055335f818152600460208190526040808320805461ffff1916815595860183905593850182905560038501805460ff1916905593909301839055905190917fac268f7e07e832bf2aedd9f3ffd031ceb7a2b2553a288d8f509a34ee51f6b01f91a25050565b6001600160a01b0381166112785760405163c52a9bd360e01b815260040160405180910390fd5b336001600160a01b038216036112a15760405163c52a9bd360e01b815260040160405180910390fd5b335f908152600260205260409020805460ff166112d15760405163c905160360e01b815260040160405180910390fd5b6001600160a01b0382165f9081526002602052604090205460ff161561130a576040516321878bbb60e11b815260040160405180910390fd5b335f9081526003602052604090205460ff161561133d57604051600162c2546160e01b0319815260040160405180910390fd5b604080518082018252600181526001600160a01b038481166020808401828152335f81815260039093528683209551865492516001600160a81b0319909316901515610100600160a81b03191617610100929095169190910293909317909355925190917ff7c1f85d2aa240ffd45baef2d8b7c207efc5c80b9445b29111e15a377753e04e91a35050565b5f546001600160a01b031633148015906113f15750335f9081526001602052604090205460ff16155b1561140f57604051631f0853c160e21b815260040160405180910390fd5b805f0361142f5760405163c52a9bd360e01b815260040160405180910390fd5b60058190556040518181527f76b82b817a32b66d6f81ff4d51b974ac74247dab33999b67bca7d860aab57ea5906020015b60405180910390a150565b6001600160a01b0381165f908152600260205260409020805460ff166114a45760405163c905160360e01b815260040160405180910390fd5b6001600160a01b0382165f908152600460205260409020805460ff166114dd576040516358b89db560e11b815260040160405180910390fd5b80600401544211611501576040516308251df360e41b815260040160405180910390fd5b600381015460ff166115168484836001612a65565b50505050565b5f6001600160a01b0382166115445760405163c52a9bd360e01b815260040160405180910390fd5b61154e3383612690565b92915050565b5f546001600160a01b0316331480159061157d5750335f9081526001602052604090205460ff16155b1561159b57604051631f0853c160e21b815260040160405180910390fd5b805f036115bb5760405163162908e360e11b815260040160405180910390fd5b6001600160a01b0382165f908152600260205260409020805460ff166115f45760405163c905160360e01b815260040160405180910390fd5b6003815462010000900460ff16600381111561161257611612612ea1565b146116305760405163c52a9bd360e01b815260040160405180910390fd5b8054610100900460ff166116575760405163c52a9bd360e01b815260040160405180910390fd5b81816003015f82825461166a9190613248565b90915550506040518281526001600160a01b038416907f0fe5a7b7663f26f587ce6d3d3b14ed918ceacabd0374141bd3df3fdb9e75734790602001610cfa565b5f546001600160a01b031633148015906116d35750335f9081526001602052604090205460ff16155b156116f157604051631f0853c160e21b815260040160405180910390fd5b6001600160a01b0383165f908152600260205260409020805460ff1661172a5760405163c905160360e01b815260040160405180910390fd5b5f6117358484612c38565b905061174082612987565b8154610100900460ff1661176d5760058201805467ffffffffffffffff1916426001600160401b03161790555b81548490839062ff000019166201000083600381111561178f5761178f612ea1565b0217905550808260020181905550846001600160a01b03167fe1dc74c32c160721195c4f75d69baf0db8d8381464b7186fadd3bdc0e94e8f6985836040516117d8929190613406565b60405180910390a25050505050565b5f546001600160a01b031633148015906118105750335f9081526001602052604090205460ff16155b1561182e57604051631f0853c160e21b815260040160405180910390fd5b6001600160a01b0387165f908152600260205260409020805460ff166118675760405163c905160360e01b815260040160405180910390fd5b6001600160a01b0388165f9081526004602052604090205460ff16156118a057604051630c12a13560e01b815260040160405180910390fd5b5f6118ab8887612c38565b905060038860038111156118c1576118c1612ea1565b141580156118cd575086155b156118eb5760405163162908e360e11b815260040160405180910390fd5b6118f482612987565b815461ff00191682556040805160c08101909152600181526020810189600381111561192257611922612ea1565b81526020018881526020018281526020018615158152602001600554426119499190613248565b90526001600160a01b038a165f9081526004602090815260409091208251815490151560ff19821681178355928401519192839161ff001990911661ffff19909116176101008360038111156119a1576119a1612ea1565b021790555060408201518160010155606082015181600201556080820151816003015f6101000a81548160ff02191690831515021790555060a08201518160040155905050886001600160a01b03167f4933f9405a21095bb6e639fea6d1138f188f4341cd2ef29fc62bfd842aaa229f8989848960055442611a239190613248565b8a8a604051611a389796959493929190613421565b60405180910390a2505050505050505050565b5f546001600160a01b03163314801590611a745750335f9081526001602052604090205460ff16155b15611a9257604051631f0853c160e21b815260040160405180910390fd5b6001600160a01b0381165f908152600260205260409020805460ff16611acb5760405163c905160360e01b815260040160405180910390fd5b6001600160a01b0382165f908152600460205260409020805460ff16611b04576040516358b89db560e11b815260040160405180910390fd5b6001600160a01b0383165f818152600460208190526040808320805461ffff19168155600181018490556002810184905560038101805460ff19169055909101829055845461ff0019166101001785556005850180546001600160401b03421667ffffffffffffffff19909116179055517f4538f80e606dc112c529fe1c118bb3d8f3d492a812f776b70e409a0b185386579190a2505050565b5f546001600160a01b03163314801590611bc75750335f9081526001602052604090205460ff16155b15611be557604051631f0853c160e21b815260040160405180910390fd5b6001600160a01b0382165f908152600260205260409020805460ff16611c1e5760405163c905160360e01b815260040160405180910390fd5b6003815462010000900460ff166003811115611c3c57611c3c612ea1565b14158015611c48575081155b15611c665760405163162908e360e11b815260040160405180910390fd5b611c6f81612987565b600181018290556040518281526001600160a01b038416907f88f1cd44ffae38c2984098fc8d5ee986f0dd01a6c72d65d810d9f6beedbb206790602001610cfa565b5f546001600160a01b03163314801590611cda5750335f9081526001602052604090205460ff16155b15611cf857604051631f0853c160e21b815260040160405180910390fd5b345f03611d185760405163162908e360e11b815260040160405180910390fd5b60405134815233907fda1785fe1dec267c363b06ae3e02c3e086123f9d611399f7a1cc98492518372e9060200160405180910390a2565b5f611d58612cf6565b805490915060ff600160401b82041615906001600160401b03165f81158015611d7e5750825b90505f826001600160401b03166001148015611d995750303b155b905081158015611da7575080155b15611dc55760405163f92ee8a960e01b815260040160405180910390fd5b845467ffffffffffffffff191660011785558315611def57845460ff60401b1916600160401b1785555b6001600160a01b038616611e165760405163c52a9bd360e01b815260040160405180910390fd5b5f80546001600160a01b0319166001600160a01b03881690811782556040519091907f8934ce4adea8d9ce0d714d2c22b86790e41b7731c84b926fbbdc1d40ff6533c9908290a38315611ea357845460ff60401b19168555604051600181527fc7f505b2f371ae2175ee4913f4499e1f2633a7b5936321eed1cdaeb6115181d29060200160405180910390a15b505050505050565b5f546001600160a01b03163314801590611ed45750335f9081526001602052604090205460ff16155b15611ef257604051631f0853c160e21b815260040160405180910390fd5b6001600160a01b038616611f195760405163c52a9bd360e01b815260040160405180910390fd5b6001600160a01b0386165f9081526002602052604090205460ff1615611f52576040516321878bbb60e11b815260040160405180910390fd5b5f611f5d8685612c38565b90506003866003811115611f7357611f73612ea1565b14158015611f7f575084155b15611f9d5760405163162908e360e11b815260040160405180910390fd5b604080516101208101825260018082526020820152908101876003811115611fc757611fc7612ea1565b81526020018681526020018281526020015f81526020015f8152602001426001600160401b0316815260200184848080601f0160208091040260200160405190810160405280939291908181526020018383808284375f9201829052509390945250506001600160a01b038a16815260026020908152604091829020845181549286015161ffff1990931690151561ff0019161761010092151592909202919091178082559184015190925090829062ff000019166201000083600381111561209257612092612ea1565b0217905550606082015160018201556080820151600282015560a0820151600382015560c0820151600482015560e082015160058201805467ffffffffffffffff19166001600160401b0390921691909117905561010082015160068201906120fb9082613468565b5050600680546001810182555f919091527ff652222313e28459528d920b65115c16c04f3efc82aaedc97be59f3f377c0d3f0180546001600160a01b0319166001600160a01b038a169081179091556040519091507f761f7745f0857947221c32f05ffe7a642236f91d515052cb3da0cea483063683906110e59089908990869089908990613522565b5f546001600160a01b031633146121af576040516330cd747160e01b815260040160405180910390fd5b60078190556040518181527f3ab06a07965d960859bcfcc0f0590e9aa961da06b90540e0cba148e13b4524b790602001611460565b5f546001600160a01b0316331461220e576040516330cd747160e01b815260040160405180910390fd5b6001600160a01b0381166122355760405163c52a9bd360e01b815260040160405180910390fd5b5f80546001600160a01b038381166001600160a01b0319831681178455604051919092169283917f8934ce4adea8d9ce0d714d2c22b86790e41b7731c84b926fbbdc1d40ff6533c99190a35050565b6001600160a01b0381166122ab5760405163c52a9bd360e01b815260040160405180910390fd5b6001600160a01b0381165f908152600360205260409020805460ff166122e45760405163f0c16f1960e01b815260040160405180910390fd5b805461010090046001600160a01b031633146123135760405163396d37ef60e11b815260040160405180910390fd5b335f9081526002602052604090205460ff1615612343576040516321878bbb60e11b815260040160405180910390fd5b6001600160a01b0382165f90815260026020526040902061236381612987565b604080516101208101825260018152825460ff61010082048116151560208401529192830191620100009091041660038111156123a2576123a2612ea1565b81526001830154602082015260028301546040820152600383015460608201526004830154608082015260058301546001600160401b031660a082015260068301805460c0909201916123f49061325b565b80601f01602080910402602001604051908101604052809291908181526020018280546124209061325b565b801561246b5780601f106124425761010080835404028352916020019161246b565b820191905f5260205f20905b81548152906001019060200180831161244e57829003601f168201915b505050919092525050335f90815260026020908152604091829020835181549285015161ffff1990931690151561ff001916176101009215159290920291909117808255918301519091829062ff00001916620100008360038111156124d3576124d3612ea1565b0217905550606082015160018201556080820151600282015560a0820151600382015560c0820151600482015560e082015160058201805467ffffffffffffffff19166001600160401b03909216919091179055610100820151600682019061253c9082613468565b5050506001600160a01b0383165f9081526002602081905260408220805462ffffff1916815560018101839055908101829055600381018290556004810182905560058101805467ffffffffffffffff191690559061259e6006830182612e14565b50506001600160a01b0383165f90815260036020526040812080546001600160a81b0319169055600654905b8181101561265457846001600160a01b0316600682815481106125ef576125ef613293565b5f918252602090912001546001600160a01b03160361264c57336006828154811061261c5761261c613293565b905f5260205f20015f6101000a8154816001600160a01b0302191690836001600160a01b03160217905550612654565b6001016125ca565b5060405133906001600160a01b038616907f8e58716248449261135b3a7b20073d1b4f16376ae21806496b258e9609312693905f90a350505050565b6001600160a01b0382165f908152600260205260408120805460ff166126c95760405163c905160360e01b815260040160405180910390fd5b6126d281612987565b80600301545f036126f6576040516332b336ab60e11b815260040160405180910390fd5b475f03612716576040516310162d2d60e01b815260040160405180910390fd5b47816003015410612727574761272d565b80600301545b915081816003015f8282546127429190613235565b9250508190555081816004015f82825461275c9190613248565b90915550506040515f906001600160a01b0385169084908381818185875af1925050503d805f81146127a9576040519150601f19603f3d011682016040523d82523d5f602084013e6127ae565b606091505b50509050806127d0576040516312171d8360e31b815260040160405180910390fd5b836001600160a01b0316856001600160a01b03167ff7a40077ff7a04c7e61f6f26fb13774259ddf1b6bce9ecf26a8276cdd39926838560405161281591815260200190565b60405180910390a36007541561297f575f61282e610b05565b509050801561297d57600654475f5b82811015612979575f6006828154811061285957612859613293565b5f9182526020808320909101546001600160a01b03168083526002909152604090912080549192509060ff61010090910416612896575050612971565b6003815462010000900460ff1660038111156128b4576128b4612ea1565b036128c0575050612971565b80600201545f036128d2575050612971565b5f816002015482600101546128e7919061320b565b9050805f036128f857505050612971565b5f87612904838861321e565b61290e919061320b565b90505f61291b838361320b565b905060075481101561296b57846001600160a01b03167f221439e032fc5fc029b6c13916b9ad14e21c32369ca17eec27c70a56f21391c48260405161296291815260200190565b60405180910390a25b50505050505b60010161283d565b5050505b505b505092915050565b61299081612d1e565b8054610100900460ff1680156129c257506003815462010000900460ff1660038111156129bf576129bf612ea1565b14155b80156129d157505f8160020154115b15612a625760058101545f906129f0906001600160401b031642613235565b90505f826002015482612a039190613559565b90508015612a415760028301546001840154612a1f908361321e565b612a29919061320b565b836003015f828254612a3b9190613248565b90915550505b505060058101805467ffffffffffffffff1916426001600160401b03161790555b50565b8115612b5357825461ff001916835560058301805467ffffffffffffffff1916426001600160401b03161790556001600160a01b0384165f9081526004602081905260408220805461ffff19168155600181018390556002810183905560038101805460ff1916905501558015612b1b57604051600181526001600160a01b038516907f593ee421b74ecc9cf54c61db04c0ed101561f4b12b0f341cf43363df196514c3906020015b60405180910390a2611516565b6040516001600160a01b038516907f064316ba045ee9fe1747167a9332758e4e0ed252bef810084892165f4853ccab905f90a2611516565b825461ff0019166101001783556005830180546001600160401b03421667ffffffffffffffff199091161790556001600160a01b0384165f9081526004602081905260408220805461ffff19168155600181018390556002810183905560038101805460ff1916905501558015612bff576040515f81526001600160a01b038516907f593ee421b74ecc9cf54c61db04c0ed101561f4b12b0f341cf43363df196514c390602001612b0e565b6040516001600160a01b038516907fbe0f4150901071da3195b17e2a5aa0acfc1ed4b4c2720ab9d1481f81187f2f27905f90a250505050565b5f80836003811115612c4c57612c4c612ea1565b03612c5a5750610e1061154e565b6001836003811115612c6e57612c6e612ea1565b03612c7d575062278d0061154e565b6002836003811115612c9157612c91612ea1565b03612cbd57815f03612cb65760405163c52a9bd360e01b815260040160405180910390fd5b508061154e565b6003836003811115612cd157612cd1612ea1565b03612cdd57505f61154e565b60405163c52a9bd360e01b815260040160405180910390fd5b5f807ff0c57e16840df040f15088dc2f81fe391c3923bec73e23a9662efc9c229c6a0061154e565b8054610100900460ff16612d2f5750565b6003815462010000900460ff166003811115612d4d57612d4d612ea1565b03612d555750565b80600201545f03612d635750565b60058101545f90612d7d906001600160401b031642613235565b90505f826002015482612d90919061320b565b9050805f03612d9e57505050565b6001830154612dad908261321e565b836003015f828254612dbf9190613248565b90915550506002830154612dd3908261321e565b6005840154612deb91906001600160401b0316613248565b600593909301805467ffffffffffffffff19166001600160401b03909416939093179092555050565b508054612e209061325b565b5f825580601f10612e2f575050565b601f0160209004905f5260205f2090612e489190612e4a565b565b5f5b80821115612e61575f81840155600101612e4c565b505050565b80356001600160a01b0381168114612e7c575f5ffd5b919050565b5f60208284031215612e91575f5ffd5b612e9a82612e66565b9392505050565b634e487b7160e01b5f52602160045260245ffd5b60048110612ed157634e487b7160e01b5f52602160045260245ffd5b9052565b89151581528815156020820152612eef6040820189612eb5565b8660608201528560808201528460a08201528360c08201526001600160401b03831660e08201526101206101008201525f825180610120840152806020850161014085015e5f6101408285010152610140601f19601f8301168401019150509a9950505050505050505050565b80358015158114612e7c575f5ffd5b5f5f60408385031215612f7c575f5ffd5b612f8583612e66565b9150612f9360208401612f5c565b90509250929050565b5f60208284031215612fac575f5ffd5b5035919050565b5f5f83601f840112612fc3575f5ffd5b5081356001600160401b03811115612fd9575f5ffd5b602083019150836020828501011115612ff0575f5ffd5b9250929050565b5f5f5f60408486031215613009575f5ffd5b61301284612e66565b925060208401356001600160401b0381111561302c575f5ffd5b61303886828701612fb3565b9497909650939450505050565b5f5f60408385031215613056575f5ffd5b61305f83612e66565b946020939093013593505050565b803560048110612e7c575f5ffd5b5f5f5f6060848603121561308d575f5ffd5b61309684612e66565b92506130a46020850161306d565b929592945050506040919091013590565b5f5f5f5f5f5f5f60c0888a0312156130cb575f5ffd5b6130d488612e66565b96506130e26020890161306d565b955060408801359450606088013593506130fe60808901612f5c565b925060a08801356001600160401b03811115613118575f5ffd5b6131248a828b01612fb3565b989b979a50959850939692959293505050565b861515815260c0810161314d6020830188612eb5565b60408201959095526060810193909352901515608083015260a09091015292915050565b5f5f5f5f5f5f60a08789031215613186575f5ffd5b61318f87612e66565b955061319d6020880161306d565b9450604087013593506060870135925060808701356001600160401b038111156131c5575f5ffd5b6131d189828a01612fb3565b979a9699509497509295939492505050565b634e487b7160e01b5f52601260045260245ffd5b634e487b7160e01b5f52601160045260245ffd5b5f82613219576132196131e3565b500490565b808202811582820484141761154e5761154e6131f7565b8181038181111561154e5761154e6131f7565b8082018082111561154e5761154e6131f7565b600181811c9082168061326f57607f821691505b60208210810361328d57634e487b7160e01b5f52602260045260245ffd5b50919050565b634e487b7160e01b5f52603260045260245ffd5b634e487b7160e01b5f52604160045260245ffd5b601f821115612e615782821115612e6157805f5260205f20601f840160051c60208510156132e657505f5b90810190601f840160051c035f5b81811015611ea3575f838201556001016132f4565b6001600160401b03831115613320576133206132a7565b6133348361332e835461325b565b836132bb565b5f601f841160018114613365575f851561334e5750838201355b5f19600387901b1c1916600186901b1783556133bc565b5f83815260208120601f198716915b828110156133945786850135825560209485019460019092019101613374565b50868210156133b0575f1960f88860031b161c19848701351681555b505060018560011b0183555b5050505050565b81835281816020850137505f828201602090810191909152601f909101601f19169091010190565b602081525f6133fe6020830184866133c3565b949350505050565b604081016134148285612eb5565b8260208301529392505050565b61342b8189612eb5565b866020820152856040820152841515606082015283608082015260c060a08201525f61345b60c0830184866133c3565b9998505050505050505050565b81516001600160401b03811115613481576134816132a7565b6134958161348f845461325b565b846132bb565b6020601f8211600181146134c7575f83156134b05750848201515b5f19600385901b1c1916600184901b1784556133bc565b5f84815260208120601f198516915b828110156134f657878501518255602094850194600190920191016134d6565b508482101561351357868401515f19600387901b60f8161c191681555b50505050600190811b01905550565b61352c8187612eb5565b846020820152836040820152608060608201525f61354e6080830184866133c3565b979650505050505050565b5f82613567576135676131e3565b50069056fea26469706673582212205b0462a29c95f6b30d056dcc7db3b470c9eecae7305d4624bb263017936b2a4464736f6c63430008220033","linkReferences":{}},"methodIdentifiers":{"acceptMigration(address)":"f817b594","acceptTerms()":"815af908","addWorker(address,uint8,uint256,uint256,string)":"ca8adcea","admins(address)":"429b62e5","cancelMigration()":"10639ea0","cancelProposal(address)":"af8df99d","claim()":"4e71d92d","claimTo(address)":"a262f5f8","claimable(address)":"402914f5","defaultProposalWindow()":"734bacc5","expireProposal(address)":"97feb103","fundTreasury()":"b9c18685","grantTriggerPayment(address,uint256)":"a2b2deac","initialize(address)":"c4d66de8","lowTreasuryThresholdSeconds()":"373bfeae","owner()":"8da5cb5b","pendingMigrations(address)":"a104a1ee","pendingTerms(address)":"b824f73a","proposeMigration(address)":"86215a3d","proposeTerms(address,uint8,uint256,uint256,bool,string)":"a9624f2b","rejectTerms()":"65b509e1","setAdmin(address,bool)":"4b0bddd2","setLowTreasuryThreshold(uint256)":"e66a6b92","setProposalWindow(uint256)":"95f32a8a","setWorkerStatus(address,bool)":"566a4ce8","transferOwnership(address)":"f2fde38b","treasuryRunway()":"550070d4","updateWorkerInterval(address,uint8,uint256)":"a6360675","updateWorkerMetadata(address,string)":"5fd296da","updateWorkerRate(address,uint256)":"b3747a51","withdrawExcess(address,uint256)":"6e90013d","workerList(uint256)":"4d432c1d","workerRunway(address)":"22e9588a","workers(address)":"4048a257"},"id":36}